{
  "contractName": "Datastore",
  "abi": [
    {
      "inputs": [
        {
          "internalType": "address",
          "name": "addr",
          "type": "address"
        }
      ],
      "name": "getVoter",
      "outputs": [
        {
          "internalType": "string",
          "name": "",
          "type": "string"
        }
      ],
      "stateMutability": "view",
      "type": "function",
      "constant": true
    },
    {
      "inputs": [],
      "name": "getVoters",
      "outputs": [
        {
          "internalType": "string[]",
          "name": "",
          "type": "string[]"
        }
      ],
      "stateMutability": "view",
      "type": "function",
      "constant": true
    },
    {
      "inputs": [],
      "name": "getVotersCount",
      "outputs": [
        {
          "internalType": "uint256",
          "name": "",
          "type": "uint256"
        }
      ],
      "stateMutability": "view",
      "type": "function",
      "constant": true
    },
    {
      "inputs": [
        {
          "internalType": "address",
          "name": "addr",
          "type": "address"
        },
        {
          "internalType": "string",
          "name": "name",
          "type": "string"
        }
      ],
      "name": "addVoter",
      "outputs": [],
      "stateMutability": "nonpayable",
      "type": "function"
    },
    {
      "inputs": [
        {
          "internalType": "address",
          "name": "addr",
          "type": "address"
        },
        {
          "internalType": "string",
          "name": "proposalName",
          "type": "string"
        }
      ],
      "name": "getVoterProposal",
      "outputs": [
        {
          "internalType": "string",
          "name": "",
          "type": "string"
        }
      ],
      "stateMutability": "view",
      "type": "function",
      "constant": true
    },
    {
      "inputs": [
        {
          "internalType": "address",
          "name": "addr",
          "type": "address"
        },
        {
          "internalType": "string",
          "name": "proposalName",
          "type": "string"
        },
        {
          "internalType": "string",
          "name": "vote",
          "type": "string"
        }
      ],
      "name": "addVoterProposal",
      "outputs": [],
      "stateMutability": "nonpayable",
      "type": "function"
    },
    {
      "inputs": [
        {
          "internalType": "address",
          "name": "addr",
          "type": "address"
        }
      ],
      "name": "getDirector",
      "outputs": [
        {
          "internalType": "string",
          "name": "",
          "type": "string"
        }
      ],
      "stateMutability": "view",
      "type": "function",
      "constant": true
    },
    {
      "inputs": [],
      "name": "getDirectors",
      "outputs": [
        {
          "internalType": "string[]",
          "name": "",
          "type": "string[]"
        }
      ],
      "stateMutability": "view",
      "type": "function",
      "constant": true
    },
    {
      "inputs": [
        {
          "internalType": "address",
          "name": "addr",
          "type": "address"
        },
        {
          "internalType": "string",
          "name": "name",
          "type": "string"
        }
      ],
      "name": "addDirector",
      "outputs": [],
      "stateMutability": "nonpayable",
      "type": "function"
    },
    {
      "inputs": [
        {
          "internalType": "address",
          "name": "addr",
          "type": "address"
        },
        {
          "internalType": "string",
          "name": "proposalName",
          "type": "string"
        }
      ],
      "name": "getDirectorProposal",
      "outputs": [
        {
          "internalType": "bool",
          "name": "",
          "type": "bool"
        }
      ],
      "stateMutability": "view",
      "type": "function",
      "constant": true
    },
    {
      "inputs": [
        {
          "internalType": "address",
          "name": "addr",
          "type": "address"
        },
        {
          "internalType": "string",
          "name": "proposalName",
          "type": "string"
        }
      ],
      "name": "addDirectorProposal",
      "outputs": [],
      "stateMutability": "nonpayable",
      "type": "function"
    }
  ],
  "bytecode": "0x608060405234801561001057600080fd5b5061110f806100206000396000f3fe608060405234801561001057600080fd5b50600436106100a95760003560e01c8063c0f2a77711610071578063c0f2a77714610162578063cdd7225314610180578063d4f50f981461019e578063d9e95a98146101ce578063e8ae7a0a146101ea578063fd2641a41461021a576100a9565b806304ab80fc146100ae5780631546d17a146100de5780631fae0f6e146100fa57806339324c5b1461011657806349c6b28c14610146575b600080fd5b6100c860048036038101906100c3919061099a565b610238565b6040516100d59190610a57565b60405180910390f35b6100f860048036038101906100f39190610ade565b61030c565b005b610114600480360381019061010f9190610b3e565b610389565b005b610130600480360381019061012b9190610ade565b6103ff565b60405161013d9190610bee565b60405180910390f35b610160600480360381019061015b9190610ade565b610478565b005b61016a610513565b6040516101779190610c22565b60405180910390f35b610188610520565b6040516101959190610d49565b60405180910390f35b6101b860048036038101906101b3919061099a565b6105f9565b6040516101c59190610a57565b60405180910390f35b6101e860048036038101906101e39190610ade565b6106cc565b005b61020460048036038101906101ff9190610ade565b610766565b6040516102119190610a57565b60405180910390f35b610222610859565b60405161022f9190610d49565b60405180910390f35b6060600160008373ffffffffffffffffffffffffffffffffffffffff1673ffffffffffffffffffffffffffffffffffffffff168152602001908152602001600020600001805461028790610d9a565b80601f01602080910402602001604051908101604052809291908181526020018280546102b390610d9a565b80156103005780601f106102d557610100808354040283529160200191610300565b820191906000526020600020905b8154815290600101906020018083116102e357829003601f168201915b50505050509050919050565b60018060008573ffffffffffffffffffffffffffffffffffffffff1673ffffffffffffffffffffffffffffffffffffffff168152602001908152602001600020600101838360405161035f929190610e0a565b908152602001604051809103902060006101000a81548160ff021916908315150217905550505050565b81816000808873ffffffffffffffffffffffffffffffffffffffff1673ffffffffffffffffffffffffffffffffffffffff16815260200190815260200160002060010186866040516103dc929190610e0a565b908152602001604051809103902091826103f7929190611009565b505050505050565b6000600160008573ffffffffffffffffffffffffffffffffffffffff1673ffffffffffffffffffffffffffffffffffffffff1681526020019081526020016000206001018383604051610453929190610e0a565b908152602001604051809103902060009054906101000a900460ff1690509392505050565b6000600160008573ffffffffffffffffffffffffffffffffffffffff1673ffffffffffffffffffffffffffffffffffffffff168152602001908152602001600020905082828260000191826104ce929190611009565b50600383839091806001815401808255809150506001900390600052602060002001600090919290919290919290919250918261050c929190611009565b5050505050565b6000600280549050905090565b60606002805480602002602001604051908101604052809291908181526020016000905b828210156105f057838290600052602060002001805461056390610d9a565b80601f016020809104026020016040519081016040528092919081815260200182805461058f90610d9a565b80156105dc5780601f106105b1576101008083540402835291602001916105dc565b820191906000526020600020905b8154815290600101906020018083116105bf57829003601f168201915b505050505081526020019060010190610544565b50505050905090565b60606000808373ffffffffffffffffffffffffffffffffffffffff1673ffffffffffffffffffffffffffffffffffffffff168152602001908152602001600020600001805461064790610d9a565b80601f016020809104026020016040519081016040528092919081815260200182805461067390610d9a565b80156106c05780601f10610695576101008083540402835291602001916106c0565b820191906000526020600020905b8154815290600101906020018083116106a357829003601f168201915b50505050509050919050565b60008060008573ffffffffffffffffffffffffffffffffffffffff1673ffffffffffffffffffffffffffffffffffffffff16815260200190815260200160002090508282826000019182610721929190611009565b50600283839091806001815401808255809150506001900390600052602060002001600090919290919290919290919250918261075f929190611009565b5050505050565b60606000808573ffffffffffffffffffffffffffffffffffffffff1673ffffffffffffffffffffffffffffffffffffffff16815260200190815260200160002060010183836040516107b9929190610e0a565b908152602001604051809103902080546107d290610d9a565b80601f01602080910402602001604051908101604052809291908181526020018280546107fe90610d9a565b801561084b5780601f106108205761010080835404028352916020019161084b565b820191906000526020600020905b81548152906001019060200180831161082e57829003601f168201915b505050505090509392505050565b60606003805480602002602001604051908101604052809291908181526020016000905b8282101561092957838290600052602060002001805461089c90610d9a565b80601f01602080910402602001604051908101604052809291908181526020018280546108c890610d9a565b80156109155780601f106108ea57610100808354040283529160200191610915565b820191906000526020600020905b8154815290600101906020018083116108f857829003601f168201915b50505050508152602001906001019061087d565b50505050905090565b600080fd5b600080fd5b600073ffffffffffffffffffffffffffffffffffffffff82169050919050565b60006109678261093c565b9050919050565b6109778161095c565b811461098257600080fd5b50565b6000813590506109948161096e565b92915050565b6000602082840312156109b0576109af610932565b5b60006109be84828501610985565b91505092915050565b600081519050919050565b600082825260208201905092915050565b60005b83811015610a015780820151818401526020810190506109e6565b60008484015250505050565b6000601f19601f8301169050919050565b6000610a29826109c7565b610a3381856109d2565b9350610a438185602086016109e3565b610a4c81610a0d565b840191505092915050565b60006020820190508181036000830152610a718184610a1e565b905092915050565b600080fd5b600080fd5b600080fd5b60008083601f840112610a9e57610a9d610a79565b5b8235905067ffffffffffffffff811115610abb57610aba610a7e565b5b602083019150836001820283011115610ad757610ad6610a83565b5b9250929050565b600080600060408486031215610af757610af6610932565b5b6000610b0586828701610985565b935050602084013567ffffffffffffffff811115610b2657610b25610937565b5b610b3286828701610a88565b92509250509250925092565b600080600080600060608688031215610b5a57610b59610932565b5b6000610b6888828901610985565b955050602086013567ffffffffffffffff811115610b8957610b88610937565b5b610b9588828901610a88565b9450945050604086013567ffffffffffffffff811115610bb857610bb7610937565b5b610bc488828901610a88565b92509250509295509295909350565b60008115159050919050565b610be881610bd3565b82525050565b6000602082019050610c036000830184610bdf565b92915050565b6000819050919050565b610c1c81610c09565b82525050565b6000602082019050610c376000830184610c13565b92915050565b600081519050919050565b600082825260208201905092915050565b6000819050602082019050919050565b600082825260208201905092915050565b6000610c85826109c7565b610c8f8185610c69565b9350610c9f8185602086016109e3565b610ca881610a0d565b840191505092915050565b6000610cbf8383610c7a565b905092915050565b6000602082019050919050565b6000610cdf82610c3d565b610ce98185610c48565b935083602082028501610cfb85610c59565b8060005b85811015610d375784840389528151610d188582610cb3565b9450610d2383610cc7565b925060208a01995050600181019050610cff565b50829750879550505050505092915050565b60006020820190508181036000830152610d638184610cd4565b905092915050565b7f4e487b7100000000000000000000000000000000000000000000000000000000600052602260045260246000fd5b60006002820490506001821680610db257607f821691505b602082108103610dc557610dc4610d6b565b5b50919050565b600081905092915050565b82818337600083830152505050565b6000610df18385610dcb565b9350610dfe838584610dd6565b82840190509392505050565b6000610e17828486610de5565b91508190509392505050565b600082905092915050565b7f4e487b7100000000000000000000000000000000000000000000000000000000600052604160045260246000fd5b60008190508160005260206000209050919050565b60006020601f8301049050919050565b600082821b905092915050565b600060088302610ebf7fffffffffffffffffffffffffffffffffffffffffffffffffffffffffffffffff82610e82565b610ec98683610e82565b95508019841693508086168417925050509392505050565b6000819050919050565b6000610f06610f01610efc84610c09565b610ee1565b610c09565b9050919050565b6000819050919050565b610f2083610eeb565b610f34610f2c82610f0d565b848454610e8f565b825550505050565b600090565b610f49610f3c565b610f54818484610f17565b505050565b5b81811015610f7857610f6d600082610f41565b600181019050610f5a565b5050565b601f821115610fbd57610f8e81610e5d565b610f9784610e72565b81016020851015610fa6578190505b610fba610fb285610e72565b830182610f59565b50505b505050565b600082821c905092915050565b6000610fe060001984600802610fc2565b1980831691505092915050565b6000610ff98383610fcf565b9150826002028217905092915050565b6110138383610e23565b67ffffffffffffffff81111561102c5761102b610e2e565b5b6110368254610d9a565b611041828285610f7c565b6000601f831160018114611070576000841561105e578287013590505b6110688582610fed565b8655506110d0565b601f19841661107e86610e5d565b60005b828110156110a657848901358255600182019150602085019450602081019050611081565b868310156110c357848901356110bf601f891682610fcf565b8355505b6001600288020188555050505b5050505050505056fea264697066735822122078428e4cc3195ca2d386ea48dbf6a7a4508ab059ac798803a0bd6b40cd9e18d964736f6c63430008110033",
  "immutableReferences": {},
  "source": "pragma solidity ^0.8.0;\n\ncontract Datastore {\n\n    // Voters and Directors data\n    \n    struct voter {\n        string name;\n        mapping(string => string) proposals;\n    }\n\n    struct director {\n        string name;\n        mapping(string => bool) proposals;\n    }\n\n    // This declares a state variable that\n    // stores a `Voter` struct for each possible address.\n    mapping(address => voter) private voters;\n    mapping(address => director) private directors;\n\n\n    // Store list of voters and directors name. Circumvent map iterate problem.\n    string[] votersName;\n    string[] directorsName;\n\n    function getVoter(address addr) public view returns (string memory) {\n        return voters[addr].name;\n    }\n\n    function getVoters() public view returns (string[] memory) {\n        return votersName;\n    }\n\n    function getVotersCount() public view returns (uint) {\n        return votersName.length;\n    }\n\n    function addVoter(address addr, string calldata name) public {\n        voter storage addedVoter = voters[addr];\n        addedVoter.name = name;\n        votersName.push(name);\n    }\n\n    function getVoterProposal(address addr, string calldata proposalName) public view returns (string memory) {\n        return voters[addr].proposals[proposalName];\n    }\n\n    function addVoterProposal(address addr, string calldata proposalName, string calldata vote) public {\n        voters[addr].proposals[proposalName] = vote;\n    }\n\n    function getDirector(address addr) public view returns (string memory) {\n        return directors[addr].name;\n    }\n\n    function getDirectors() public view returns (string[] memory) {\n        return directorsName;\n    }\n\n    function addDirector(address addr, string calldata name) public {\n        director storage addedDir = directors[addr];\n        addedDir.name = name;\n        directorsName.push(name);\n    }\n\n    function getDirectorProposal(address addr, string calldata proposalName) public view returns (bool) {\n        return directors[addr].proposals[proposalName];\n    }\n\n    function addDirectorProposal(address addr, string calldata proposalName) public {\n        directors[addr].proposals[proposalName] = true;\n    }\n}\n",
  "sourcePath": "/Users/sean/Desktop/blockchainproj2/contracts/DataStore.sol",
  "compiler": {
    "name": "solc",
    "version": "0.8.17+commit.8df45f5f.Emscripten.clang"
  },
  "schemaVersion": "3.4.10",
  "updatedAt": "2022-11-05T12:50:46.507Z",
  "networkType": "ethereum",
  "devdoc": {
    "kind": "dev",
    "methods": {},
    "version": 1
  },
  "userdoc": {
    "kind": "user",
    "methods": {},
    "version": 1
  }
}