{
  "contractName": "ProposalContract",
  "abi": [
    {
      "inputs": [
        {
          "internalType": "address",
          "name": "_personnelDataAddr",
          "type": "address"
        }
      ],
      "stateMutability": "payable",
      "type": "constructor",
      "payable": true
    },
    {
      "inputs": [],
      "name": "getAllProposals",
      "outputs": [
        {
          "internalType": "string[]",
          "name": "",
          "type": "string[]"
        }
      ],
      "stateMutability": "view",
      "type": "function",
      "constant": true
    },
    {
      "inputs": [
        {
          "internalType": "string",
          "name": "name",
          "type": "string"
        }
      ],
      "name": "getProposalInfo",
      "outputs": [
        {
          "components": [
            {
              "internalType": "address",
              "name": "createdBy",
              "type": "address"
            },
            {
              "internalType": "uint256",
              "name": "voteYes",
              "type": "uint256"
            },
            {
              "internalType": "uint256",
              "name": "voteNo",
              "type": "uint256"
            },
            {
              "internalType": "uint256",
              "name": "budget",
              "type": "uint256"
            },
            {
              "internalType": "uint256",
              "name": "votingEndTime",
              "type": "uint256"
            }
          ],
          "internalType": "struct ProposalContract.Proposal",
          "name": "",
          "type": "tuple"
        }
      ],
      "stateMutability": "view",
      "type": "function",
      "constant": true
    },
    {
      "inputs": [
        {
          "internalType": "string",
          "name": "proposalName",
          "type": "string"
        },
        {
          "internalType": "uint256",
          "name": "_budget",
          "type": "uint256"
        },
        {
          "internalType": "uint256",
          "name": "_votingPeriod",
          "type": "uint256"
        }
      ],
      "name": "addProposal",
      "outputs": [],
      "stateMutability": "nonpayable",
      "type": "function"
    },
    {
      "inputs": [
        {
          "internalType": "string",
          "name": "_proposalName",
          "type": "string"
        },
        {
          "internalType": "bool",
          "name": "voteYesNo",
          "type": "bool"
        }
      ],
      "name": "voteProposal",
      "outputs": [
        {
          "internalType": "string",
          "name": "",
          "type": "string"
        }
      ],
      "stateMutability": "nonpayable",
      "type": "function"
    },
    {
      "inputs": [],
      "name": "removeEndedProposals",
      "outputs": [
        {
          "internalType": "string[]",
          "name": "",
          "type": "string[]"
        }
      ],
      "stateMutability": "nonpayable",
      "type": "function"
    },
    {
      "inputs": [],
      "name": "getAllWinningProposals",
      "outputs": [
        {
          "internalType": "string[]",
          "name": "",
          "type": "string[]"
        }
      ],
      "stateMutability": "view",
      "type": "function",
      "constant": true
    }
  ],
  "bytecode": "0x6080604052604051620024ae380380620024ae8339818101604052810190620000299190620000da565b806000806101000a81548173ffffffffffffffffffffffffffffffffffffffff021916908373ffffffffffffffffffffffffffffffffffffffff160217905550506200010c565b600080fd5b600073ffffffffffffffffffffffffffffffffffffffff82169050919050565b6000620000a28262000075565b9050919050565b620000b48162000095565b8114620000c057600080fd5b50565b600081519050620000d481620000a9565b92915050565b600060208284031215620000f357620000f262000070565b5b60006200010384828501620000c3565b91505092915050565b612392806200011c6000396000f3fe608060405234801561001057600080fd5b50600436106100625760003560e01c8063316738ec1461006757806333464d0414610083578063492cedb2146100a1578063cceb68f5146100d1578063d8a9afb2146100ef578063fd2b3c4f1461011f575b600080fd5b610081600480360381019061007c91906114cb565b61013d565b005b61008b61025d565b6040516100989190611691565b60405180910390f35b6100bb60048036038101906100b691906116eb565b610c7c565b6040516100c89190611795565b60405180910390f35b6100d961110f565b6040516100e69190611691565b60405180910390f35b610109600480360381019061010491906117b7565b6111e8565b60405161011691906118bc565b60405180910390f35b6101276112a1565b6040516101349190611691565b60405180910390f35b6040518060a001604052803273ffffffffffffffffffffffffffffffffffffffff168152602001600081526020016000815260200183815260200182426101849190611906565b81525060018585604051610199929190611979565b908152602001604051809103902060008201518160000160006101000a81548173ffffffffffffffffffffffffffffffffffffffff021916908373ffffffffffffffffffffffffffffffffffffffff160217905550602082015181600101556040820151816002015560608201518160030155608082015181600401559050506003848490918060018154018082558091505060019003906000526020600020016000909192909192909192909192509182610256929190611bd8565b5050505050565b606060008060009054906101000a900473ffffffffffffffffffffffffffffffffffffffff16905060008173ffffffffffffffffffffffffffffffffffffffff1663cdd722536040518163ffffffff1660e01b8152600401600060405180830381865afa1580156102d2573d6000803e3d6000fd5b505050506040513d6000823e3d601f19601f820116820180604052508101906102fb9190611e7b565b519050600060016003805490506103129190611ec4565b90505b60008111156107685760006003828154811061033457610333611ef8565b5b906000526020600020018054610349906119fb565b80601f0160208091040260200160405190810160405280929190818152602001828054610375906119fb565b80156103c25780601f10610397576101008083540402835291602001916103c2565b820191906000526020600020905b8154815290600101906020018083116103a557829003601f168201915b5050505050905060006001826040516103db9190611f58565b90815260200160405180910390206040518060a00160405290816000820160009054906101000a900473ffffffffffffffffffffffffffffffffffffffff1673ffffffffffffffffffffffffffffffffffffffff1673ffffffffffffffffffffffffffffffffffffffff168152602001600182015481526020016002820154815260200160038201548152602001600482015481525050905060008160400151826020015161048a9190611906565b905060008111801561049c5750600085115b1561068157600060648284602001516104b59190611f9e565b6104bf9190611fcf565b90506000606487846104d19190611f9e565b6104db9190611fcf565b90506032821180156104ee575060508110155b1561067e576004859080600181540180825580915050600190039060005260206000200160009091909190915090816105279190612011565b50836002866040516105399190611f58565b908152602001604051809103902060008201518160000160006101000a81548173ffffffffffffffffffffffffffffffffffffffff021916908373ffffffffffffffffffffffffffffffffffffffff160217905550602082015181600101556040820151816002015560608201518160030155608082015181600401559050506105c161137a565b806001876040516105d29190611f58565b908152602001604051809103902060008201518160000160006101000a81548173ffffffffffffffffffffffffffffffffffffffff021916908373ffffffffffffffffffffffffffffffffffffffff160217905550602082015181600101556040820151816002015560608201518160030155608082015181600401559050506003878154811061066657610665611ef8565b5b90600052602060002001600061067c91906113bf565b505b50505b81608001514211156107525761069561137a565b806001856040516106a69190611f58565b908152602001604051809103902060008201518160000160006101000a81548173ffffffffffffffffffffffffffffffffffffffff021916908373ffffffffffffffffffffffffffffffffffffffff160217905550602082015181600101556040820151816002015560608201518160030155608082015181600401559050506003858154811061073a57610739611ef8565b5b90600052602060002001600061075091906113bf565b505b5050508080610760906120e3565b915050610315565b50600060036000815481106107805761077f611ef8565b5b906000526020600020018054610795906119fb565b80601f01602080910402602001604051908101604052809291908181526020018280546107c1906119fb565b801561080e5780601f106107e35761010080835404028352916020019161080e565b820191906000526020600020905b8154815290600101906020018083116107f157829003601f168201915b5050505050905060006001826040516108279190611f58565b90815260200160405180910390206040518060a00160405290816000820160009054906101000a900473ffffffffffffffffffffffffffffffffffffffff1673ffffffffffffffffffffffffffffffffffffffff1673ffffffffffffffffffffffffffffffffffffffff16815260200160018201548152602001600282015481526020016003820154815260200160048201548152505090506000816040015182602001516108d69190611906565b90506000811180156108e85750600084115b15610ace57600060648284602001516109019190611f9e565b61090b9190611fcf565b905060006064868461091d9190611f9e565b6109279190611fcf565b905060328211801561093a575060508110155b15610acb576004859080600181540180825580915050600190039060005260206000200160009091909190915090816109739190612011565b50836002866040516109859190611f58565b908152602001604051809103902060008201518160000160006101000a81548173ffffffffffffffffffffffffffffffffffffffff021916908373ffffffffffffffffffffffffffffffffffffffff16021790555060208201518160010155604082015181600201556060820151816003015560808201518160040155905050610a0d61137a565b80600187604051610a1e9190611f58565b908152602001604051809103902060008201518160000160006101000a81548173ffffffffffffffffffffffffffffffffffffffff021916908373ffffffffffffffffffffffffffffffffffffffff160217905550602082015181600101556040820151816002015560608201518160030155608082015181600401559050506003600081548110610ab357610ab2611ef8565b5b906000526020600020016000610ac991906113bf565b505b50505b8160800151421115610ba057610ae261137a565b80600185604051610af39190611f58565b908152602001604051809103902060008201518160000160006101000a81548173ffffffffffffffffffffffffffffffffffffffff021916908373ffffffffffffffffffffffffffffffffffffffff160217905550602082015181600101556040820151816002015560608201518160030155608082015181600401559050506003600081548110610b8857610b87611ef8565b5b906000526020600020016000610b9e91906113bf565b505b6003805480602002602001604051908101604052809291908181526020016000905b82821015610c6e578382906000526020600020018054610be1906119fb565b80601f0160208091040260200160405190810160405280929190818152602001828054610c0d906119fb565b8015610c5a5780601f10610c2f57610100808354040283529160200191610c5a565b820191906000526020600020905b815481529060010190602001808311610c3d57829003601f168201915b505050505081526020019060010190610bc2565b505050509550505050505090565b606060008060009054906101000a900473ffffffffffffffffffffffffffffffffffffffff16905060008173ffffffffffffffffffffffffffffffffffffffff1663d4f50f98326040518263ffffffff1660e01b8152600401610cdf919061211b565b600060405180830381865afa158015610cfc573d6000803e3d6000fd5b505050506040513d6000823e3d601f19601f82011682018060405250810190610d259190612136565b905060008273ffffffffffffffffffffffffffffffffffffffff1663e8ae7a0a3289896040518463ffffffff1660e01b8152600401610d66939291906121ac565b600060405180830381865afa158015610d83573d6000803e3d6000fd5b505050506040513d6000823e3d601f19601f82011682018060405250810190610dac9190612136565b90506040518060200160405280600081525080519060200120828051906020012003610e12576040518060400160405280601481526020017f766f74657220646f6573206e6f742065786973740000000000000000000000008152509350505050611108565b6040518060200160405280600081525080519060200120818051906020012014610e59576040518060600160405280602a8152602001612333602a91399350505050611108565b600060018888604051610e6d929190611979565b908152602001604051809103902060000160009054906101000a900473ffffffffffffffffffffffffffffffffffffffff169050600060018989604051610eb5929190611979565b9081526020016040518091039020600401549050600073ffffffffffffffffffffffffffffffffffffffff168273ffffffffffffffffffffffffffffffffffffffff1603610f3f576040518060400160405280601181526020017f6e6f2070726f706f73616c20666f756e6400000000000000000000000000000081525095505050505050611108565b80421115610f6c576040518060600160405280603281526020016123016032913995505050505050611108565b8615611020576001808a8a604051610f85929190611979565b90815260200160405180910390206001016000828254610fa59190611906565b925050819055508473ffffffffffffffffffffffffffffffffffffffff16631fae0f6e328b8b6040518463ffffffff1660e01b8152600401610fe99392919061222a565b600060405180830381600087803b15801561100357600080fd5b505af1158015611017573d6000803e3d6000fd5b505050506110ca565b6001808a8a604051611033929190611979565b908152602001604051809103902060020160008282546110539190611906565b925050819055508473ffffffffffffffffffffffffffffffffffffffff16631fae0f6e328b8b6040518463ffffffff1660e01b8152600401611097939291906122bb565b600060405180830381600087803b1580156110b157600080fd5b505af11580156110c5573d6000803e3d6000fd5b505050505b6040518060400160405280601281526020017f766f746520686173206265656e206d6164650000000000000000000000000000815250955050505050505b9392505050565b60606003805480602002602001604051908101604052809291908181526020016000905b828210156111df578382906000526020600020018054611152906119fb565b80601f016020809104026020016040519081016040528092919081815260200182805461117e906119fb565b80156111cb5780601f106111a0576101008083540402835291602001916111cb565b820191906000526020600020905b8154815290600101906020018083116111ae57829003601f168201915b505050505081526020019060010190611133565b50505050905090565b6111f061137a565b60018383604051611202929190611979565b90815260200160405180910390206040518060a00160405290816000820160009054906101000a900473ffffffffffffffffffffffffffffffffffffffff1673ffffffffffffffffffffffffffffffffffffffff1673ffffffffffffffffffffffffffffffffffffffff168152602001600182015481526020016002820154815260200160038201548152602001600482015481525050905092915050565b60606004805480602002602001604051908101604052809291908181526020016000905b828210156113715783829060005260206000200180546112e4906119fb565b80601f0160208091040260200160405190810160405280929190818152602001828054611310906119fb565b801561135d5780601f106113325761010080835404028352916020019161135d565b820191906000526020600020905b81548152906001019060200180831161134057829003601f168201915b5050505050815260200190600101906112c5565b50505050905090565b6040518060a00160405280600073ffffffffffffffffffffffffffffffffffffffff168152602001600081526020016000815260200160008152602001600081525090565b5080546113cb906119fb565b6000825580601f106113dd57506113fc565b601f0160209004906000526020600020908101906113fb91906113ff565b5b50565b5b80821115611418576000816000905550600101611400565b5090565b6000604051905090565b600080fd5b600080fd5b600080fd5b600080fd5b600080fd5b60008083601f84011261145557611454611430565b5b8235905067ffffffffffffffff81111561147257611471611435565b5b60208301915083600182028301111561148e5761148d61143a565b5b9250929050565b6000819050919050565b6114a881611495565b81146114b357600080fd5b50565b6000813590506114c58161149f565b92915050565b600080600080606085870312156114e5576114e4611426565b5b600085013567ffffffffffffffff8111156115035761150261142b565b5b61150f8782880161143f565b94509450506020611522878288016114b6565b9250506040611533878288016114b6565b91505092959194509250565b600081519050919050565b600082825260208201905092915050565b6000819050602082019050919050565b600081519050919050565b600082825260208201905092915050565b60005b838110156115a557808201518184015260208101905061158a565b60008484015250505050565b6000601f19601f8301169050919050565b60006115cd8261156b565b6115d78185611576565b93506115e7818560208601611587565b6115f0816115b1565b840191505092915050565b600061160783836115c2565b905092915050565b6000602082019050919050565b60006116278261153f565b611631818561154a565b9350836020820285016116438561155b565b8060005b8581101561167f578484038952815161166085826115fb565b945061166b8361160f565b925060208a01995050600181019050611647565b50829750879550505050505092915050565b600060208201905081810360008301526116ab818461161c565b905092915050565b60008115159050919050565b6116c8816116b3565b81146116d357600080fd5b50565b6000813590506116e5816116bf565b92915050565b60008060006040848603121561170457611703611426565b5b600084013567ffffffffffffffff8111156117225761172161142b565b5b61172e8682870161143f565b93509350506020611741868287016116d6565b9150509250925092565b600082825260208201905092915050565b60006117678261156b565b611771818561174b565b9350611781818560208601611587565b61178a816115b1565b840191505092915050565b600060208201905081810360008301526117af818461175c565b905092915050565b600080602083850312156117ce576117cd611426565b5b600083013567ffffffffffffffff8111156117ec576117eb61142b565b5b6117f88582860161143f565b92509250509250929050565b600073ffffffffffffffffffffffffffffffffffffffff82169050919050565b600061182f82611804565b9050919050565b61183f81611824565b82525050565b61184e81611495565b82525050565b60a08201600082015161186a6000850182611836565b50602082015161187d6020850182611845565b5060408201516118906040850182611845565b5060608201516118a36060850182611845565b5060808201516118b66080850182611845565b50505050565b600060a0820190506118d16000830184611854565b92915050565b7f4e487b7100000000000000000000000000000000000000000000000000000000600052601160045260246000fd5b600061191182611495565b915061191c83611495565b9250828201905080821115611934576119336118d7565b5b92915050565b600081905092915050565b82818337600083830152505050565b6000611960838561193a565b935061196d838584611945565b82840190509392505050565b6000611986828486611954565b91508190509392505050565b600082905092915050565b7f4e487b7100000000000000000000000000000000000000000000000000000000600052604160045260246000fd5b7f4e487b7100000000000000000000000000000000000000000000000000000000600052602260045260246000fd5b60006002820490506001821680611a1357607f821691505b602082108103611a2657611a256119cc565b5b50919050565b60008190508160005260206000209050919050565b60006020601f8301049050919050565b600082821b905092915050565b600060088302611a8e7fffffffffffffffffffffffffffffffffffffffffffffffffffffffffffffffff82611a51565b611a988683611a51565b95508019841693508086168417925050509392505050565b6000819050919050565b6000611ad5611ad0611acb84611495565b611ab0565b611495565b9050919050565b6000819050919050565b611aef83611aba565b611b03611afb82611adc565b848454611a5e565b825550505050565b600090565b611b18611b0b565b611b23818484611ae6565b505050565b5b81811015611b4757611b3c600082611b10565b600181019050611b29565b5050565b601f821115611b8c57611b5d81611a2c565b611b6684611a41565b81016020851015611b75578190505b611b89611b8185611a41565b830182611b28565b50505b505050565b600082821c905092915050565b6000611baf60001984600802611b91565b1980831691505092915050565b6000611bc88383611b9e565b9150826002028217905092915050565b611be28383611992565b67ffffffffffffffff811115611bfb57611bfa61199d565b5b611c0582546119fb565b611c10828285611b4b565b6000601f831160018114611c3f5760008415611c2d578287013590505b611c378582611bbc565b865550611c9f565b601f198416611c4d86611a2c565b60005b82811015611c7557848901358255600182019150602085019450602081019050611c50565b86831015611c925784890135611c8e601f891682611b9e565b8355505b6001600288020188555050505b50505050505050565b611cb1826115b1565b810181811067ffffffffffffffff82111715611cd057611ccf61199d565b5b80604052505050565b6000611ce361141c565b9050611cef8282611ca8565b919050565b600067ffffffffffffffff821115611d0f57611d0e61199d565b5b602082029050602081019050919050565b600080fd5b600067ffffffffffffffff821115611d4057611d3f61199d565b5b611d49826115b1565b9050602081019050919050565b6000611d69611d6484611d25565b611cd9565b905082815260208101848484011115611d8557611d84611d20565b5b611d90848285611587565b509392505050565b600082601f830112611dad57611dac611430565b5b8151611dbd848260208601611d56565b91505092915050565b6000611dd9611dd484611cf4565b611cd9565b90508083825260208201905060208402830185811115611dfc57611dfb61143a565b5b835b81811015611e4357805167ffffffffffffffff811115611e2157611e20611430565b5b808601611e2e8982611d98565b85526020850194505050602081019050611dfe565b5050509392505050565b600082601f830112611e6257611e61611430565b5b8151611e72848260208601611dc6565b91505092915050565b600060208284031215611e9157611e90611426565b5b600082015167ffffffffffffffff811115611eaf57611eae61142b565b5b611ebb84828501611e4d565b91505092915050565b6000611ecf82611495565b9150611eda83611495565b9250828203905081811115611ef257611ef16118d7565b5b92915050565b7f4e487b7100000000000000000000000000000000000000000000000000000000600052603260045260246000fd5b6000611f328261156b565b611f3c818561193a565b9350611f4c818560208601611587565b80840191505092915050565b6000611f648284611f27565b915081905092915050565b7f4e487b7100000000000000000000000000000000000000000000000000000000600052601260045260246000fd5b6000611fa982611495565b9150611fb483611495565b925082611fc457611fc3611f6f565b5b828204905092915050565b6000611fda82611495565b9150611fe583611495565b9250828202611ff381611495565b9150828204841483151761200a576120096118d7565b5b5092915050565b61201a8261156b565b67ffffffffffffffff8111156120335761203261199d565b5b61203d82546119fb565b612048828285611b4b565b600060209050601f83116001811461207b5760008415612069578287015190505b6120738582611bbc565b8655506120db565b601f19841661208986611a2c565b60005b828110156120b15784890151825560018201915060208501945060208101905061208c565b868310156120ce57848901516120ca601f891682611b9e565b8355505b6001600288020188555050505b505050505050565b60006120ee82611495565b915060008203612101576121006118d7565b5b600182039050919050565b61211581611824565b82525050565b6000602082019050612130600083018461210c565b92915050565b60006020828403121561214c5761214b611426565b5b600082015167ffffffffffffffff81111561216a5761216961142b565b5b61217684828501611d98565b91505092915050565b600061218b838561174b565b9350612198838584611945565b6121a1836115b1565b840190509392505050565b60006040820190506121c1600083018661210c565b81810360208301526121d481848661217f565b9050949350505050565b7f7965730000000000000000000000000000000000000000000000000000000000600082015250565b600061221460038361174b565b915061221f826121de565b602082019050919050565b600060608201905061223f600083018661210c565b818103602083015261225281848661217f565b9050818103604083015261226581612207565b9050949350505050565b7f6e6f000000000000000000000000000000000000000000000000000000000000600082015250565b60006122a560028361174b565b91506122b08261226f565b602082019050919050565b60006060820190506122d0600083018661210c565b81810360208301526122e381848661217f565b905081810360408301526122f681612298565b905094935050505056fe766f74696e6720706572696f642068617320656e6465642e204e6f206368616e6765732068617665206265656e206d616465766f7465722068617320766f7465642e204e6f206368616e6765732068617665206265656e206d616465a26469706673582212203e0a9b70011a24e0824edf8e0b468e79bac332dba66642f21d72b4f403df552964736f6c63430008110033",
  "immutableReferences": {},
  "source": "pragma solidity ^0.8.0;\n\nimport \"./datastore.sol\";\n\ncontract ProposalContract {\n    address personnelDataAddr;\n\n    constructor(address _personnelDataAddr) public payable {\n        personnelDataAddr = _personnelDataAddr;\n    }\n\n    struct Proposal {\n        address createdBy;\n        uint256 voteYes;\n        uint256 voteNo;\n        uint256 budget;\n        uint256 votingEndTime;\n    }\n\n    // Map of `proposal` structs.\n    mapping(string => Proposal) proposals;\n    mapping(string => Proposal) winningProposals;\n\n    // List of proposal names\n    string[] proposalNames;\n    string[] winningProposalNames;\n\n    // get all proposals\n    function getAllProposals() public view returns (string[] memory) {\n        return proposalNames;\n    }\n\n    function getProposalInfo(string calldata name)\n        public\n        view\n        returns (Proposal memory)\n    {\n        return proposals[name];\n    }\n\n    // add a new proposal\n    function addProposal(\n        string calldata proposalName,\n        uint256 _budget,\n        uint256 _votingPeriod\n    ) public {\n        proposals[proposalName] = Proposal({\n            createdBy: tx.origin,\n            voteYes: 0,\n            voteNo: 0,\n            budget: _budget,\n            votingEndTime: block.timestamp + _votingPeriod\n        });\n\n        proposalNames.push(proposalName);\n    }\n\n    // vote for proposal\n    function voteProposal(string calldata _proposalName, bool voteYesNo)\n        public\n        returns (string memory)\n    {\n        Datastore personnelData = Datastore(personnelDataAddr);\n        string memory voterName = personnelData.getVoter(tx.origin);\n        string memory voterProposalStatus = personnelData.getVoterProposal(\n            tx.origin,\n            _proposalName\n        );\n\n        // check if voter exists\n        if (keccak256(bytes(voterName)) == keccak256(bytes(\"\"))) {\n            return \"voter does not exist\";\n        }\n\n        // check if voter has voted. if value is not \"yes\" or \"no\", return\n        if (keccak256(bytes(voterProposalStatus)) != keccak256(bytes(\"\"))) {\n            return \"voter has voted. No changes have been made\";\n        }\n\n        // check if proposal exists, voting period has ended\n        address createdBy = proposals[_proposalName].createdBy;\n        uint256 votingEndTime = proposals[_proposalName].votingEndTime;\n        if (createdBy == address(0)) {\n            return \"no proposal found\";\n        } else if (block.timestamp > votingEndTime) {\n            return \"voting period has ended. No changes have been made\";\n        } else {\n            if (voteYesNo) {\n                proposals[_proposalName].voteYes += 1;\n                // set voter's vote details for project to yes\n                personnelData.addVoterProposal(tx.origin, _proposalName, \"yes\");\n            } else {\n                proposals[_proposalName].voteNo += 1;\n                // set voter's vote details for project to no\n                personnelData.addVoterProposal(tx.origin, _proposalName, \"no\");\n            }\n            return \"vote has been made\";\n        }\n    }\n\n    function removeEndedProposals() public returns (string[] memory) {\n        Datastore personnelData = Datastore(personnelDataAddr);\n        uint256 numVoters = personnelData.getVoters().length;\n\n        for (uint256 i = proposalNames.length - 1; i > 0; i--) {\n            string memory proposalName = proposalNames[i];\n            Proposal memory proposal = proposals[proposalName];\n\n            // move winning proposals to another array\n            uint256 totalVotes = proposal.voteYes + proposal.voteNo;\n            if (totalVotes > 0 && numVoters > 0) {\n                uint256 percentageWinning = (proposal.voteYes / totalVotes) *\n                    100;\n                uint256 percentageVoted = (totalVotes / numVoters) * 100;\n                if (percentageWinning > 50 && percentageVoted >= 80) {\n                    winningProposalNames.push(proposalName);\n                    winningProposals[proposalName] = proposal;\n                    Proposal memory empty;\n                    proposals[proposalName] = empty;\n                    delete proposalNames[i];\n                }\n            }\n\n            // delete all ended proposals\n            if (block.timestamp > proposal.votingEndTime) {\n                Proposal memory empty;\n                proposals[proposalName] = empty;\n                delete proposalNames[i];\n            }\n        }\n\n        // have to do one more for the index 0 coz solidity is trash\n        string memory firstProposalName = proposalNames[0];\n        Proposal memory firstProposal = proposals[firstProposalName];\n        uint256 firstTotalVotes = firstProposal.voteYes + firstProposal.voteNo;\n\n        // move winning proposal to another array\n        if (firstTotalVotes > 0 && numVoters > 0) {\n            uint256 firstPercentageWinning = (firstProposal.voteYes /\n                firstTotalVotes) * 100;\n            uint256 firstPercentageVoted = (firstTotalVotes / numVoters) * 100;\n            if (firstPercentageWinning > 50 && firstPercentageVoted >= 80) {\n                winningProposalNames.push(firstProposalName);\n                winningProposals[firstProposalName] = firstProposal;\n                Proposal memory empty;\n                proposals[firstProposalName] = empty;\n                delete proposalNames[0];\n            }\n        }\n\n        // delete ended proposals\n        if (block.timestamp > firstProposal.votingEndTime) {\n            Proposal memory empty;\n            proposals[firstProposalName] = empty;\n            delete proposalNames[0];\n        }\n        return proposalNames;\n    }\n\n    // get all winning proposals\n    function getAllWinningProposals() public view returns (string[] memory) {\n        return winningProposalNames;\n    }\n}\n",
  "sourcePath": "/Users/sean/Desktop/blockchainproj2/contracts/ProposalContract.sol",
  "compiler": {
    "name": "solc",
    "version": "0.8.17+commit.8df45f5f.Emscripten.clang"
  },
  "schemaVersion": "3.4.10",
  "updatedAt": "2022-11-05T12:50:46.514Z",
  "networkType": "ethereum",
  "devdoc": {
    "kind": "dev",
    "methods": {},
    "version": 1
  },
  "userdoc": {
    "kind": "user",
    "methods": {},
    "version": 1
  }
}