{
  "contractName": "ProposalContract",
  "abi": [
    {
      "inputs": [
        {
          "internalType": "address",
          "name": "_personnelDataAddr",
          "type": "address"
        }
      ],
      "stateMutability": "payable",
      "type": "constructor",
      "payable": true
    },
    {
      "inputs": [],
      "name": "getAllProposals",
      "outputs": [
        {
          "internalType": "string[]",
          "name": "",
          "type": "string[]"
        }
      ],
      "stateMutability": "view",
      "type": "function",
      "constant": true
    },
    {
      "inputs": [
        {
          "internalType": "string",
          "name": "name",
          "type": "string"
        }
      ],
      "name": "getProposalInfo",
      "outputs": [
        {
          "components": [
            {
              "internalType": "address",
              "name": "createdBy",
              "type": "address"
            },
            {
              "internalType": "uint256",
              "name": "voteYes",
              "type": "uint256"
            },
            {
              "internalType": "uint256",
              "name": "voteNo",
              "type": "uint256"
            },
            {
              "internalType": "uint256",
              "name": "budget",
              "type": "uint256"
            },
            {
              "internalType": "uint256",
              "name": "votingEndTime",
              "type": "uint256"
            }
          ],
          "internalType": "struct ProposalContract.Proposal",
          "name": "",
          "type": "tuple"
        }
      ],
      "stateMutability": "view",
      "type": "function",
      "constant": true
    },
    {
      "inputs": [
        {
          "internalType": "string",
          "name": "proposalName",
          "type": "string"
        },
        {
          "internalType": "uint256",
          "name": "_budget",
          "type": "uint256"
        },
        {
          "internalType": "uint256",
          "name": "_votingPeriod",
          "type": "uint256"
        }
      ],
      "name": "addProposal",
      "outputs": [],
      "stateMutability": "nonpayable",
      "type": "function"
    },
    {
      "inputs": [
        {
          "internalType": "string",
          "name": "_proposalName",
          "type": "string"
        },
        {
          "internalType": "bool",
          "name": "voteYesNo",
          "type": "bool"
        }
      ],
      "name": "voteProposal",
      "outputs": [
        {
          "internalType": "string",
          "name": "",
          "type": "string"
        }
      ],
      "stateMutability": "nonpayable",
      "type": "function"
    },
    {
      "inputs": [],
      "name": "removeEndedProposals",
      "outputs": [
        {
          "internalType": "string[]",
          "name": "",
          "type": "string[]"
        }
      ],
      "stateMutability": "nonpayable",
      "type": "function"
    },
    {
      "inputs": [],
      "name": "removeEndedProposals2",
      "outputs": [
        {
          "internalType": "string[]",
          "name": "",
          "type": "string[]"
        }
      ],
      "stateMutability": "nonpayable",
      "type": "function"
    },
    {
      "inputs": [],
      "name": "getAllWinningProposals",
      "outputs": [
        {
          "internalType": "string[]",
          "name": "",
          "type": "string[]"
        }
      ],
      "stateMutability": "view",
      "type": "function",
      "constant": true
    },
    {
      "inputs": [
        {
          "internalType": "string",
          "name": "name",
          "type": "string"
        }
      ],
      "name": "getWinningProposalInfo",
      "outputs": [
        {
          "components": [
            {
              "internalType": "address",
              "name": "createdBy",
              "type": "address"
            },
            {
              "internalType": "uint256",
              "name": "voteYes",
              "type": "uint256"
            },
            {
              "internalType": "uint256",
              "name": "voteNo",
              "type": "uint256"
            },
            {
              "internalType": "uint256",
              "name": "budget",
              "type": "uint256"
            },
            {
              "internalType": "uint256",
              "name": "votingEndTime",
              "type": "uint256"
            }
          ],
          "internalType": "struct ProposalContract.Proposal",
          "name": "",
          "type": "tuple"
        }
      ],
      "stateMutability": "view",
      "type": "function",
      "constant": true
    }
  ],
  "bytecode": "0x608060405260405162002fb538038062002fb58339818101604052810190620000299190620000da565b806000806101000a81548173ffffffffffffffffffffffffffffffffffffffff021916908373ffffffffffffffffffffffffffffffffffffffff160217905550506200010c565b600080fd5b600073ffffffffffffffffffffffffffffffffffffffff82169050919050565b6000620000a28262000075565b9050919050565b620000b48162000095565b8114620000c057600080fd5b50565b600081519050620000d481620000a9565b92915050565b600060208284031215620000f357620000f262000070565b5b60006200010384828501620000c3565b91505092915050565b612e99806200011c6000396000f3fe608060405234801561001057600080fd5b50600436106100885760003560e01c8063cceb68f51161005b578063cceb68f514610127578063d8a9afb214610145578063ed51fb5f14610175578063fd2b3c4f1461019357610088565b8063316738ec1461008d57806333464d04146100a9578063492cedb2146100c7578063b1f587ae146100f7575b600080fd5b6100a760048036038101906100a29190611fd2565b6101b1565b005b6100b161037c565b6040516100be9190612198565b60405180910390f35b6100e160048036038101906100dc91906121f2565b610d9b565b6040516100ee919061229c565b60405180910390f35b610111600480360381019061010c91906122be565b61122e565b60405161011e91906123c3565b60405180910390f35b61012f6112e7565b60405161013c9190612198565b60405180910390f35b61015f600480360381019061015a91906122be565b6113c0565b60405161016c91906123c3565b60405180910390f35b61017d611479565b60405161018a9190612198565b60405180910390f35b61019b611da8565b6040516101a89190612198565b60405180910390f35b60008060009054906101000a900473ffffffffffffffffffffffffffffffffffffffff16905060008173ffffffffffffffffffffffffffffffffffffffff166304ab80fc326040518263ffffffff1660e01b815260040161021291906123ed565b600060405180830381865afa15801561022f573d6000803e3d6000fd5b505050506040513d6000823e3d601f19601f820116820180604052508101906102589190612529565b90506040518060a001604052803273ffffffffffffffffffffffffffffffffffffffff168152602001600081526020016000815260200185815260200184426102a191906125a1565b815250600187876040516102b6929190612614565b908152602001604051809103902060008201518160000160006101000a81548173ffffffffffffffffffffffffffffffffffffffff021916908373ffffffffffffffffffffffffffffffffffffffff160217905550602082015181600101556040820151816002015560608201518160030155608082015181600401559050506003868690918060018154018082558091505060019003906000526020600020016000909192909192909192909192509182610373929190612844565b50505050505050565b606060008060009054906101000a900473ffffffffffffffffffffffffffffffffffffffff16905060008173ffffffffffffffffffffffffffffffffffffffff1663cdd722536040518163ffffffff1660e01b8152600401600060405180830381865afa1580156103f1573d6000803e3d6000fd5b505050506040513d6000823e3d601f19601f8201168201806040525081019061041a91906129f5565b519050600060016003805490506104319190612a3e565b90505b60008111156108875760006003828154811061045357610452612a72565b5b90600052602060002001805461046890612667565b80601f016020809104026020016040519081016040528092919081815260200182805461049490612667565b80156104e15780601f106104b6576101008083540402835291602001916104e1565b820191906000526020600020905b8154815290600101906020018083116104c457829003601f168201915b5050505050905060006001826040516104fa9190612ad2565b90815260200160405180910390206040518060a00160405290816000820160009054906101000a900473ffffffffffffffffffffffffffffffffffffffff1673ffffffffffffffffffffffffffffffffffffffff1673ffffffffffffffffffffffffffffffffffffffff16815260200160018201548152602001600282015481526020016003820154815260200160048201548152505090506000816040015182602001516105a991906125a1565b90506000811180156105bb5750600085115b156107a057600060648284602001516105d49190612b18565b6105de9190612b49565b90506000606487846105f09190612b18565b6105fa9190612b49565b905060328211801561060d575060508110155b1561079d576004859080600181540180825580915050600190039060005260206000200160009091909190915090816106469190612b8b565b50836002866040516106589190612ad2565b908152602001604051809103902060008201518160000160006101000a81548173ffffffffffffffffffffffffffffffffffffffff021916908373ffffffffffffffffffffffffffffffffffffffff160217905550602082015181600101556040820151816002015560608201518160030155608082015181600401559050506106e0611e81565b806001876040516106f19190612ad2565b908152602001604051809103902060008201518160000160006101000a81548173ffffffffffffffffffffffffffffffffffffffff021916908373ffffffffffffffffffffffffffffffffffffffff160217905550602082015181600101556040820151816002015560608201518160030155608082015181600401559050506003878154811061078557610784612a72565b5b90600052602060002001600061079b9190611ec6565b505b50505b8160800151421115610871576107b4611e81565b806001856040516107c59190612ad2565b908152602001604051809103902060008201518160000160006101000a81548173ffffffffffffffffffffffffffffffffffffffff021916908373ffffffffffffffffffffffffffffffffffffffff160217905550602082015181600101556040820151816002015560608201518160030155608082015181600401559050506003858154811061085957610858612a72565b5b90600052602060002001600061086f9190611ec6565b505b505050808061087f90612c5d565b915050610434565b506000600360008154811061089f5761089e612a72565b5b9060005260206000200180546108b490612667565b80601f01602080910402602001604051908101604052809291908181526020018280546108e090612667565b801561092d5780601f106109025761010080835404028352916020019161092d565b820191906000526020600020905b81548152906001019060200180831161091057829003601f168201915b5050505050905060006001826040516109469190612ad2565b90815260200160405180910390206040518060a00160405290816000820160009054906101000a900473ffffffffffffffffffffffffffffffffffffffff1673ffffffffffffffffffffffffffffffffffffffff1673ffffffffffffffffffffffffffffffffffffffff16815260200160018201548152602001600282015481526020016003820154815260200160048201548152505090506000816040015182602001516109f591906125a1565b9050600081118015610a075750600084115b15610bed5760006064828460200151610a209190612b18565b610a2a9190612b49565b9050600060648684610a3c9190612b18565b610a469190612b49565b9050603282118015610a59575060508110155b15610bea57600485908060018154018082558091505060019003906000526020600020016000909190919091509081610a929190612b8b565b5083600286604051610aa49190612ad2565b908152602001604051809103902060008201518160000160006101000a81548173ffffffffffffffffffffffffffffffffffffffff021916908373ffffffffffffffffffffffffffffffffffffffff16021790555060208201518160010155604082015181600201556060820151816003015560808201518160040155905050610b2c611e81565b80600187604051610b3d9190612ad2565b908152602001604051809103902060008201518160000160006101000a81548173ffffffffffffffffffffffffffffffffffffffff021916908373ffffffffffffffffffffffffffffffffffffffff160217905550602082015181600101556040820151816002015560608201518160030155608082015181600401559050506003600081548110610bd257610bd1612a72565b5b906000526020600020016000610be89190611ec6565b505b50505b8160800151421115610cbf57610c01611e81565b80600185604051610c129190612ad2565b908152602001604051809103902060008201518160000160006101000a81548173ffffffffffffffffffffffffffffffffffffffff021916908373ffffffffffffffffffffffffffffffffffffffff160217905550602082015181600101556040820151816002015560608201518160030155608082015181600401559050506003600081548110610ca757610ca6612a72565b5b906000526020600020016000610cbd9190611ec6565b505b6003805480602002602001604051908101604052809291908181526020016000905b82821015610d8d578382906000526020600020018054610d0090612667565b80601f0160208091040260200160405190810160405280929190818152602001828054610d2c90612667565b8015610d795780601f10610d4e57610100808354040283529160200191610d79565b820191906000526020600020905b815481529060010190602001808311610d5c57829003601f168201915b505050505081526020019060010190610ce1565b505050509550505050505090565b606060008060009054906101000a900473ffffffffffffffffffffffffffffffffffffffff16905060008173ffffffffffffffffffffffffffffffffffffffff1663d4f50f98326040518263ffffffff1660e01b8152600401610dfe91906123ed565b600060405180830381865afa158015610e1b573d6000803e3d6000fd5b505050506040513d6000823e3d601f19601f82011682018060405250810190610e449190612529565b905060008273ffffffffffffffffffffffffffffffffffffffff1663e8ae7a0a3289896040518463ffffffff1660e01b8152600401610e8593929190612cb3565b600060405180830381865afa158015610ea2573d6000803e3d6000fd5b505050506040513d6000823e3d601f19601f82011682018060405250810190610ecb9190612529565b90506040518060200160405280600081525080519060200120828051906020012003610f31576040518060400160405280601481526020017f766f74657220646f6573206e6f742065786973740000000000000000000000008152509350505050611227565b6040518060200160405280600081525080519060200120818051906020012014610f78576040518060600160405280602a8152602001612e3a602a91399350505050611227565b600060018888604051610f8c929190612614565b908152602001604051809103902060000160009054906101000a900473ffffffffffffffffffffffffffffffffffffffff169050600060018989604051610fd4929190612614565b9081526020016040518091039020600401549050600073ffffffffffffffffffffffffffffffffffffffff168273ffffffffffffffffffffffffffffffffffffffff160361105e576040518060400160405280601181526020017f6e6f2070726f706f73616c20666f756e6400000000000000000000000000000081525095505050505050611227565b8042111561108b57604051806060016040528060328152602001612e086032913995505050505050611227565b861561113f576001808a8a6040516110a4929190612614565b908152602001604051809103902060010160008282546110c491906125a1565b925050819055508473ffffffffffffffffffffffffffffffffffffffff16631fae0f6e328b8b6040518463ffffffff1660e01b815260040161110893929190612d31565b600060405180830381600087803b15801561112257600080fd5b505af1158015611136573d6000803e3d6000fd5b505050506111e9565b6001808a8a604051611152929190612614565b9081526020016040518091039020600201600082825461117291906125a1565b925050819055508473ffffffffffffffffffffffffffffffffffffffff16631fae0f6e328b8b6040518463ffffffff1660e01b81526004016111b693929190612dc2565b600060405180830381600087803b1580156111d057600080fd5b505af11580156111e4573d6000803e3d6000fd5b505050505b6040518060400160405280601281526020017f766f746520686173206265656e206d6164650000000000000000000000000000815250955050505050505b9392505050565b611236611e81565b60028383604051611248929190612614565b90815260200160405180910390206040518060a00160405290816000820160009054906101000a900473ffffffffffffffffffffffffffffffffffffffff1673ffffffffffffffffffffffffffffffffffffffff1673ffffffffffffffffffffffffffffffffffffffff168152602001600182015481526020016002820154815260200160038201548152602001600482015481525050905092915050565b60606003805480602002602001604051908101604052809291908181526020016000905b828210156113b757838290600052602060002001805461132a90612667565b80601f016020809104026020016040519081016040528092919081815260200182805461135690612667565b80156113a35780601f10611378576101008083540402835291602001916113a3565b820191906000526020600020905b81548152906001019060200180831161138657829003601f168201915b50505050508152602001906001019061130b565b50505050905090565b6113c8611e81565b600183836040516113da929190612614565b90815260200160405180910390206040518060a00160405290816000820160009054906101000a900473ffffffffffffffffffffffffffffffffffffffff1673ffffffffffffffffffffffffffffffffffffffff1673ffffffffffffffffffffffffffffffffffffffff168152602001600182015481526020016002820154815260200160038201548152602001600482015481525050905092915050565b606060008060009054906101000a900473ffffffffffffffffffffffffffffffffffffffff169050600060016003805490506114b59190612a3e565b90505b60008111156118cf576000600382815481106114d7576114d6612a72565b5b9060005260206000200180546114ec90612667565b80601f016020809104026020016040519081016040528092919081815260200182805461151890612667565b80156115655780601f1061153a57610100808354040283529160200191611565565b820191906000526020600020905b81548152906001019060200180831161154857829003601f168201915b50505050509050600060018260405161157e9190612ad2565b90815260200160405180910390206040518060a00160405290816000820160009054906101000a900473ffffffffffffffffffffffffffffffffffffffff1673ffffffffffffffffffffffffffffffffffffffff1673ffffffffffffffffffffffffffffffffffffffff168152602001600182015481526020016002820154815260200160038201548152602001600482015481525050905060008160400151826020015161162d91906125a1565b905060008260200151118015611647575060008260400151115b156117e8578160400151826020015111156117e7576004839080600181540180825580915050600190039060005260206000200160009091909190915090816116909190612b8b565b50816002846040516116a29190612ad2565b908152602001604051809103902060008201518160000160006101000a81548173ffffffffffffffffffffffffffffffffffffffff021916908373ffffffffffffffffffffffffffffffffffffffff1602179055506020820151816001015560408201518160020155606082015181600301556080820151816004015590505061172a611e81565b8060018560405161173b9190612ad2565b908152602001604051809103902060008201518160000160006101000a81548173ffffffffffffffffffffffffffffffffffffffff021916908373ffffffffffffffffffffffffffffffffffffffff16021790555060208201518160010155604082015181600201556060820151816003015560808201518160040155905050600385815481106117cf576117ce612a72565b5b9060005260206000200160006117e59190611ec6565b505b5b81608001514211156118b9576117fc611e81565b8060018560405161180d9190612ad2565b908152602001604051809103902060008201518160000160006101000a81548173ffffffffffffffffffffffffffffffffffffffff021916908373ffffffffffffffffffffffffffffffffffffffff16021790555060208201518160010155604082015181600201556060820151816003015560808201518160040155905050600385815481106118a1576118a0612a72565b5b9060005260206000200160006118b79190611ec6565b505b50505080806118c790612c5d565b9150506114b8565b50600060036000815481106118e7576118e6612a72565b5b9060005260206000200180546118fc90612667565b80601f016020809104026020016040519081016040528092919081815260200182805461192890612667565b80156119755780601f1061194a57610100808354040283529160200191611975565b820191906000526020600020905b81548152906001019060200180831161195857829003601f168201915b50505050509050600060018260405161198e9190612ad2565b90815260200160405180910390206040518060a00160405290816000820160009054906101000a900473ffffffffffffffffffffffffffffffffffffffff1673ffffffffffffffffffffffffffffffffffffffff1673ffffffffffffffffffffffffffffffffffffffff1681526020016001820154815260200160028201548152602001600382015481526020016004820154815250509050600081604001518260200151611a3d91906125a1565b90506000826020015110158015611a5957506000826040015110155b15611bfb57816040015182602001511115611bfa57600483908060018154018082558091505060019003906000526020600020016000909190919091509081611aa29190612b8b565b5081600284604051611ab49190612ad2565b908152602001604051809103902060008201518160000160006101000a81548173ffffffffffffffffffffffffffffffffffffffff021916908373ffffffffffffffffffffffffffffffffffffffff16021790555060208201518160010155604082015181600201556060820151816003015560808201518160040155905050611b3c611e81565b80600185604051611b4d9190612ad2565b908152602001604051809103902060008201518160000160006101000a81548173ffffffffffffffffffffffffffffffffffffffff021916908373ffffffffffffffffffffffffffffffffffffffff160217905550602082015181600101556040820151816002015560608201518160030155608082015181600401559050506003600081548110611be257611be1612a72565b5b906000526020600020016000611bf89190611ec6565b505b5b8160800151421115611ccd57611c0f611e81565b80600185604051611c209190612ad2565b908152602001604051809103902060008201518160000160006101000a81548173ffffffffffffffffffffffffffffffffffffffff021916908373ffffffffffffffffffffffffffffffffffffffff160217905550602082015181600101556040820151816002015560608201518160030155608082015181600401559050506003600081548110611cb557611cb4612a72565b5b906000526020600020016000611ccb9190611ec6565b505b6003805480602002602001604051908101604052809291908181526020016000905b82821015611d9b578382906000526020600020018054611d0e90612667565b80601f0160208091040260200160405190810160405280929190818152602001828054611d3a90612667565b8015611d875780601f10611d5c57610100808354040283529160200191611d87565b820191906000526020600020905b815481529060010190602001808311611d6a57829003601f168201915b505050505081526020019060010190611cef565b5050505094505050505090565b60606004805480602002602001604051908101604052809291908181526020016000905b82821015611e78578382906000526020600020018054611deb90612667565b80601f0160208091040260200160405190810160405280929190818152602001828054611e1790612667565b8015611e645780601f10611e3957610100808354040283529160200191611e64565b820191906000526020600020905b815481529060010190602001808311611e4757829003601f168201915b505050505081526020019060010190611dcc565b50505050905090565b6040518060a00160405280600073ffffffffffffffffffffffffffffffffffffffff168152602001600081526020016000815260200160008152602001600081525090565b508054611ed290612667565b6000825580601f10611ee45750611f03565b601f016020900490600052602060002090810190611f029190611f06565b5b50565b5b80821115611f1f576000816000905550600101611f07565b5090565b6000604051905090565b600080fd5b600080fd5b600080fd5b600080fd5b600080fd5b60008083601f840112611f5c57611f5b611f37565b5b8235905067ffffffffffffffff811115611f7957611f78611f3c565b5b602083019150836001820283011115611f9557611f94611f41565b5b9250929050565b6000819050919050565b611faf81611f9c565b8114611fba57600080fd5b50565b600081359050611fcc81611fa6565b92915050565b60008060008060608587031215611fec57611feb611f2d565b5b600085013567ffffffffffffffff81111561200a57612009611f32565b5b61201687828801611f46565b9450945050602061202987828801611fbd565b925050604061203a87828801611fbd565b91505092959194509250565b600081519050919050565b600082825260208201905092915050565b6000819050602082019050919050565b600081519050919050565b600082825260208201905092915050565b60005b838110156120ac578082015181840152602081019050612091565b60008484015250505050565b6000601f19601f8301169050919050565b60006120d482612072565b6120de818561207d565b93506120ee81856020860161208e565b6120f7816120b8565b840191505092915050565b600061210e83836120c9565b905092915050565b6000602082019050919050565b600061212e82612046565b6121388185612051565b93508360208202850161214a85612062565b8060005b8581101561218657848403895281516121678582612102565b945061217283612116565b925060208a0199505060018101905061214e565b50829750879550505050505092915050565b600060208201905081810360008301526121b28184612123565b905092915050565b60008115159050919050565b6121cf816121ba565b81146121da57600080fd5b50565b6000813590506121ec816121c6565b92915050565b60008060006040848603121561220b5761220a611f2d565b5b600084013567ffffffffffffffff81111561222957612228611f32565b5b61223586828701611f46565b93509350506020612248868287016121dd565b9150509250925092565b600082825260208201905092915050565b600061226e82612072565b6122788185612252565b935061228881856020860161208e565b612291816120b8565b840191505092915050565b600060208201905081810360008301526122b68184612263565b905092915050565b600080602083850312156122d5576122d4611f2d565b5b600083013567ffffffffffffffff8111156122f3576122f2611f32565b5b6122ff85828601611f46565b92509250509250929050565b600073ffffffffffffffffffffffffffffffffffffffff82169050919050565b60006123368261230b565b9050919050565b6123468161232b565b82525050565b61235581611f9c565b82525050565b60a082016000820151612371600085018261233d565b506020820151612384602085018261234c565b506040820151612397604085018261234c565b5060608201516123aa606085018261234c565b5060808201516123bd608085018261234c565b50505050565b600060a0820190506123d8600083018461235b565b92915050565b6123e78161232b565b82525050565b600060208201905061240260008301846123de565b92915050565b600080fd5b7f4e487b7100000000000000000000000000000000000000000000000000000000600052604160045260246000fd5b612445826120b8565b810181811067ffffffffffffffff821117156124645761246361240d565b5b80604052505050565b6000612477611f23565b9050612483828261243c565b919050565b600067ffffffffffffffff8211156124a3576124a261240d565b5b6124ac826120b8565b9050602081019050919050565b60006124cc6124c784612488565b61246d565b9050828152602081018484840111156124e8576124e7612408565b5b6124f384828561208e565b509392505050565b600082601f8301126125105761250f611f37565b5b81516125208482602086016124b9565b91505092915050565b60006020828403121561253f5761253e611f2d565b5b600082015167ffffffffffffffff81111561255d5761255c611f32565b5b612569848285016124fb565b91505092915050565b7f4e487b7100000000000000000000000000000000000000000000000000000000600052601160045260246000fd5b60006125ac82611f9c565b91506125b783611f9c565b92508282019050808211156125cf576125ce612572565b5b92915050565b600081905092915050565b82818337600083830152505050565b60006125fb83856125d5565b93506126088385846125e0565b82840190509392505050565b60006126218284866125ef565b91508190509392505050565b600082905092915050565b7f4e487b7100000000000000000000000000000000000000000000000000000000600052602260045260246000fd5b6000600282049050600182168061267f57607f821691505b60208210810361269257612691612638565b5b50919050565b60008190508160005260206000209050919050565b60006020601f8301049050919050565b600082821b905092915050565b6000600883026126fa7fffffffffffffffffffffffffffffffffffffffffffffffffffffffffffffffff826126bd565b61270486836126bd565b95508019841693508086168417925050509392505050565b6000819050919050565b600061274161273c61273784611f9c565b61271c565b611f9c565b9050919050565b6000819050919050565b61275b83612726565b61276f61276782612748565b8484546126ca565b825550505050565b600090565b612784612777565b61278f818484612752565b505050565b5b818110156127b3576127a860008261277c565b600181019050612795565b5050565b601f8211156127f8576127c981612698565b6127d2846126ad565b810160208510156127e1578190505b6127f56127ed856126ad565b830182612794565b50505b505050565b600082821c905092915050565b600061281b600019846008026127fd565b1980831691505092915050565b6000612834838361280a565b9150826002028217905092915050565b61284e838361262d565b67ffffffffffffffff8111156128675761286661240d565b5b6128718254612667565b61287c8282856127b7565b6000601f8311600181146128ab5760008415612899578287013590505b6128a38582612828565b86555061290b565b601f1984166128b986612698565b60005b828110156128e1578489013582556001820191506020850194506020810190506128bc565b868310156128fe57848901356128fa601f89168261280a565b8355505b6001600288020188555050505b50505050505050565b600067ffffffffffffffff82111561292f5761292e61240d565b5b602082029050602081019050919050565b600061295361294e84612914565b61246d565b9050808382526020820190506020840283018581111561297657612975611f41565b5b835b818110156129bd57805167ffffffffffffffff81111561299b5761299a611f37565b5b8086016129a889826124fb565b85526020850194505050602081019050612978565b5050509392505050565b600082601f8301126129dc576129db611f37565b5b81516129ec848260208601612940565b91505092915050565b600060208284031215612a0b57612a0a611f2d565b5b600082015167ffffffffffffffff811115612a2957612a28611f32565b5b612a35848285016129c7565b91505092915050565b6000612a4982611f9c565b9150612a5483611f9c565b9250828203905081811115612a6c57612a6b612572565b5b92915050565b7f4e487b7100000000000000000000000000000000000000000000000000000000600052603260045260246000fd5b6000612aac82612072565b612ab681856125d5565b9350612ac681856020860161208e565b80840191505092915050565b6000612ade8284612aa1565b915081905092915050565b7f4e487b7100000000000000000000000000000000000000000000000000000000600052601260045260246000fd5b6000612b2382611f9c565b9150612b2e83611f9c565b925082612b3e57612b3d612ae9565b5b828204905092915050565b6000612b5482611f9c565b9150612b5f83611f9c565b9250828202612b6d81611f9c565b91508282048414831517612b8457612b83612572565b5b5092915050565b612b9482612072565b67ffffffffffffffff811115612bad57612bac61240d565b5b612bb78254612667565b612bc28282856127b7565b600060209050601f831160018114612bf55760008415612be3578287015190505b612bed8582612828565b865550612c55565b601f198416612c0386612698565b60005b82811015612c2b57848901518255600182019150602085019450602081019050612c06565b86831015612c485784890151612c44601f89168261280a565b8355505b6001600288020188555050505b505050505050565b6000612c6882611f9c565b915060008203612c7b57612c7a612572565b5b600182039050919050565b6000612c928385612252565b9350612c9f8385846125e0565b612ca8836120b8565b840190509392505050565b6000604082019050612cc860008301866123de565b8181036020830152612cdb818486612c86565b9050949350505050565b7f7965730000000000000000000000000000000000000000000000000000000000600082015250565b6000612d1b600383612252565b9150612d2682612ce5565b602082019050919050565b6000606082019050612d4660008301866123de565b8181036020830152612d59818486612c86565b90508181036040830152612d6c81612d0e565b9050949350505050565b7f6e6f000000000000000000000000000000000000000000000000000000000000600082015250565b6000612dac600283612252565b9150612db782612d76565b602082019050919050565b6000606082019050612dd760008301866123de565b8181036020830152612dea818486612c86565b90508181036040830152612dfd81612d9f565b905094935050505056fe766f74696e6720706572696f642068617320656e6465642e204e6f206368616e6765732068617665206265656e206d616465766f7465722068617320766f7465642e204e6f206368616e6765732068617665206265656e206d616465a2646970667358221220f331ec0228a8285f29fd96fd27aa67f0eafa9614a2b366f79b3b5dbcecb07a6364736f6c63430008110033",
  "immutableReferences": {},
  "source": "pragma solidity ^0.8.0;\n\nimport \"./datastore.sol\";\n\ncontract ProposalContract {\n    address personnelDataAddr;\n\n    constructor(address _personnelDataAddr) public payable {\n        personnelDataAddr = _personnelDataAddr;\n    }\n\n    struct Proposal {\n        address createdBy;\n        uint256 voteYes;\n        uint256 voteNo;\n        uint256 budget;\n        uint256 votingEndTime;\n    }\n\n    // Map of `proposal` structs.\n    mapping(string => Proposal) proposals;\n    mapping(string => Proposal) winningProposals;\n\n    // List of proposal names\n    string[] proposalNames;\n    string[] winningProposalNames;\n\n    // get all proposals\n    function getAllProposals() public view returns (string[] memory) {\n        return proposalNames;\n    }\n\n    function getProposalInfo(string calldata name)\n        public\n        view\n        returns (Proposal memory)\n    {\n        return proposals[name];\n    }\n\n    // add a new proposal\n    function addProposal(\n        string calldata proposalName,\n        uint256 _budget,\n        uint256 _votingPeriod\n    ) public {\n        Datastore personnelData = Datastore(personnelDataAddr);\n        string memory directorName = personnelData.getDirector(tx.origin);\n\n        proposals[proposalName] = Proposal({\n            createdBy: tx.origin,\n            voteYes: 0,\n            voteNo: 0,\n            budget: _budget,\n            votingEndTime: block.timestamp + _votingPeriod\n        });\n\n        proposalNames.push(proposalName);\n    }\n\n    // vote for proposal\n    function voteProposal(string calldata _proposalName, bool voteYesNo)\n        public\n        returns (string memory)\n    {\n        Datastore personnelData = Datastore(personnelDataAddr);\n        string memory voterName = personnelData.getVoter(tx.origin);\n        string memory voterProposalStatus = personnelData.getVoterProposal(\n            tx.origin,\n            _proposalName\n        );\n\n        // check if voter exists\n        if (keccak256(bytes(voterName)) == keccak256(bytes(\"\"))) {\n            return \"voter does not exist\";\n        }\n\n        // check if voter has voted. if value is not \"yes\" or \"no\", return\n        if (keccak256(bytes(voterProposalStatus)) != keccak256(bytes(\"\"))) {\n            return \"voter has voted. No changes have been made\";\n        }\n\n        // check if proposal exists, voting period has ended\n        address createdBy = proposals[_proposalName].createdBy;\n        uint256 votingEndTime = proposals[_proposalName].votingEndTime;\n        if (createdBy == address(0)) {\n            return \"no proposal found\";\n        } else if (block.timestamp > votingEndTime) {\n            return \"voting period has ended. No changes have been made\";\n        } else {\n            if (voteYesNo) {\n                proposals[_proposalName].voteYes += 1;\n                // set voter's vote details for project to yes\n                personnelData.addVoterProposal(tx.origin, _proposalName, \"yes\");\n            } else {\n                proposals[_proposalName].voteNo += 1;\n                // set voter's vote details for project to no\n                personnelData.addVoterProposal(tx.origin, _proposalName, \"no\");\n            }\n            return \"vote has been made\";\n        }\n    }\n\n    function removeEndedProposals() public returns (string[] memory) {\n        Datastore personnelData = Datastore(personnelDataAddr);\n        uint256 numVoters = personnelData.getVoters().length;\n\n        for (uint256 i = proposalNames.length - 1; i > 0; i--) {\n            string memory proposalName = proposalNames[i];\n            Proposal memory proposal = proposals[proposalName];\n\n            // move winning proposals to another array\n            uint256 totalVotes = proposal.voteYes + proposal.voteNo;\n            if (totalVotes > 0 && numVoters > 0) {\n                uint256 percentageWinning = (proposal.voteYes / totalVotes) *\n                    100;\n                uint256 percentageVoted = (totalVotes / numVoters) * 100;\n                if (percentageWinning > 50 && percentageVoted >= 80) {\n                    winningProposalNames.push(proposalName);\n                    winningProposals[proposalName] = proposal;\n                    Proposal memory empty;\n                    proposals[proposalName] = empty;\n                    delete proposalNames[i];\n                }\n            }\n\n            // delete all ended proposals\n            if (block.timestamp > proposal.votingEndTime) {\n                Proposal memory empty;\n                proposals[proposalName] = empty;\n                delete proposalNames[i];\n            }\n        }\n\n        // have to do one more for the index 0 coz solidity is trash\n        string memory firstProposalName = proposalNames[0];\n        Proposal memory firstProposal = proposals[firstProposalName];\n        uint256 firstTotalVotes = firstProposal.voteYes + firstProposal.voteNo;\n\n        // move winning proposal to another array\n        if (firstTotalVotes > 0 && numVoters > 0) {\n            uint256 firstPercentageWinning = (firstProposal.voteYes /\n                firstTotalVotes) * 100;\n            uint256 firstPercentageVoted = (firstTotalVotes / numVoters) * 100;\n            if (firstPercentageWinning > 50 && firstPercentageVoted >= 80) {\n                winningProposalNames.push(firstProposalName);\n                winningProposals[firstProposalName] = firstProposal;\n                Proposal memory empty;\n                proposals[firstProposalName] = empty;\n                delete proposalNames[0];\n            }\n        }\n\n        // delete ended proposals\n        if (block.timestamp > firstProposal.votingEndTime) {\n            Proposal memory empty;\n            proposals[firstProposalName] = empty;\n            delete proposalNames[0];\n        }\n        return proposalNames;\n    }\n\n    function removeEndedProposals2() public returns (string[] memory) {\n        Datastore personnelData = Datastore(personnelDataAddr);\n\n        for (uint256 i = proposalNames.length - 1; i > 0; i--) {\n            string memory proposalName = proposalNames[i];\n            Proposal memory proposal = proposals[proposalName];\n\n            // move winning proposals to another array\n            uint256 totalVotes = proposal.voteYes + proposal.voteNo;\n            if (proposal.voteYes > 0 && proposal.voteNo > 0) {\n                if (proposal.voteYes > proposal.voteNo) {\n                    winningProposalNames.push(proposalName);\n                    winningProposals[proposalName] = proposal;\n                    Proposal memory empty;\n                    proposals[proposalName] = empty;\n                    delete proposalNames[i];\n                }\n            }\n\n            // delete all ended proposals\n            if (block.timestamp > proposal.votingEndTime) {\n                Proposal memory empty;\n                proposals[proposalName] = empty;\n                delete proposalNames[i];\n            }\n        }\n\n        // have to do one more for the index 0 coz solidity is trash\n        string memory firstProposalName = proposalNames[0];\n        Proposal memory firstProposal = proposals[firstProposalName];\n        uint256 firstTotalVotes = firstProposal.voteYes + firstProposal.voteNo;\n\n        // move winning proposal to another array\n        if (firstProposal.voteYes >= 0 && firstProposal.voteNo >= 0) {\n            if (firstProposal.voteYes > firstProposal.voteNo) {\n                winningProposalNames.push(firstProposalName);\n                winningProposals[firstProposalName] = firstProposal;\n                Proposal memory empty;\n                proposals[firstProposalName] = empty;\n                delete proposalNames[0];\n            }\n        }\n        // delete ended proposals\n        if (block.timestamp > firstProposal.votingEndTime) {\n            Proposal memory empty;\n            proposals[firstProposalName] = empty;\n            delete proposalNames[0];\n        }\n        return proposalNames;\n    }\n\n    // get all winning proposals\n    function getAllWinningProposals() public view returns (string[] memory) {\n        return winningProposalNames;\n    }\n\n    function getWinningProposalInfo(string calldata name)\n        public\n        view\n        returns (Proposal memory)\n    {\n        return winningProposals[name];\n    }\n}\n",
  "sourcePath": "/Users/sean/Desktop/blockchainproj2/contracts/ProposalContract.sol",
  "compiler": {
    "name": "solc",
    "version": "0.8.17+commit.8df45f5f.Emscripten.clang"
  },
  "schemaVersion": "3.4.10",
  "updatedAt": "2022-11-07T15:48:39.157Z",
  "networkType": "ethereum",
  "devdoc": {
    "kind": "dev",
    "methods": {},
    "version": 1
  },
  "userdoc": {
    "kind": "user",
    "methods": {},
    "version": 1
  }
}