{
  "contractName": "ProposalContract",
  "abi": [
    {
      "inputs": [
        {
          "internalType": "address",
          "name": "_personnelDataAddr",
          "type": "address"
        }
      ],
      "stateMutability": "payable",
      "type": "constructor",
      "payable": true
    },
    {
      "inputs": [],
      "name": "getAllProposals",
      "outputs": [
        {
          "internalType": "string[]",
          "name": "",
          "type": "string[]"
        }
      ],
      "stateMutability": "view",
      "type": "function",
      "constant": true
    },
    {
      "inputs": [
        {
          "internalType": "string",
          "name": "proposalName",
          "type": "string"
        },
        {
          "internalType": "uint256",
          "name": "_budget",
          "type": "uint256"
        },
        {
          "internalType": "uint256",
          "name": "_votingPeriod",
          "type": "uint256"
        }
      ],
      "name": "addProposal",
      "outputs": [],
      "stateMutability": "nonpayable",
      "type": "function"
    },
    {
      "inputs": [
        {
          "internalType": "string",
          "name": "_proposalName",
          "type": "string"
        },
        {
          "internalType": "bool",
          "name": "voteYesNo",
          "type": "bool"
        }
      ],
      "name": "voteProposal",
      "outputs": [
        {
          "internalType": "string",
          "name": "",
          "type": "string"
        }
      ],
      "stateMutability": "nonpayable",
      "type": "function"
    },
    {
      "inputs": [],
      "name": "removeEndedProposals",
      "outputs": [
        {
          "internalType": "string[]",
          "name": "",
          "type": "string[]"
        }
      ],
      "stateMutability": "nonpayable",
      "type": "function"
    },
    {
      "inputs": [],
      "name": "getAllWinningProposals",
      "outputs": [
        {
          "internalType": "string[]",
          "name": "",
          "type": "string[]"
        }
      ],
      "stateMutability": "view",
      "type": "function",
      "constant": true
    }
  ],
  "bytecode": "0x60806040526040516200239c3803806200239c8339818101604052810190620000299190620000da565b806000806101000a81548173ffffffffffffffffffffffffffffffffffffffff021916908373ffffffffffffffffffffffffffffffffffffffff160217905550506200010c565b600080fd5b600073ffffffffffffffffffffffffffffffffffffffff82169050919050565b6000620000a28262000075565b9050919050565b620000b48162000095565b8114620000c057600080fd5b50565b600081519050620000d481620000a9565b92915050565b600060208284031215620000f357620000f262000070565b5b60006200010384828501620000c3565b91505092915050565b612280806200011c6000396000f3fe608060405234801561001057600080fd5b50600436106100575760003560e01c8063316738ec1461005c57806333464d0414610078578063492cedb214610096578063cceb68f5146100c6578063fd2b3c4f146100e4575b600080fd5b610076600480360381019061007191906114a7565b610102565b005b6100806102f2565b60405161008d919061166d565b60405180910390f35b6100b060048036038101906100ab91906116c7565b610d11565b6040516100bd9190611771565b60405180910390f35b6100ce6111a4565b6040516100db919061166d565b60405180910390f35b6100ec61127d565b6040516100f9919061166d565b60405180910390f35b60008060009054906101000a900473ffffffffffffffffffffffffffffffffffffffff16905060008173ffffffffffffffffffffffffffffffffffffffff166304ab80fc326040518263ffffffff1660e01b815260040161016391906117d4565b600060405180830381865afa158015610180573d6000803e3d6000fd5b505050506040513d6000823e3d601f19601f820116820180604052508101906101a99190611910565b905060405180602001604052806000815250805190602001208180519060200120146102ea576040518060a001604052803273ffffffffffffffffffffffffffffffffffffffff168152602001600081526020016000815260200185815260200184426102169190611988565b8152506001878760405161022b9291906119fb565b908152602001604051809103902060008201518160000160006101000a81548173ffffffffffffffffffffffffffffffffffffffff021916908373ffffffffffffffffffffffffffffffffffffffff1602179055506020820151816001015560408201518160020155606082015181600301556080820151816004015590505060038686909180600181540180825580915050600190039060005260206000200160009091929091929091929091925091826102e8929190611c2b565b505b505050505050565b606060008060009054906101000a900473ffffffffffffffffffffffffffffffffffffffff16905060008173ffffffffffffffffffffffffffffffffffffffff1663cdd722536040518163ffffffff1660e01b8152600401600060405180830381865afa158015610367573d6000803e3d6000fd5b505050506040513d6000823e3d601f19601f820116820180604052508101906103909190611ddc565b519050600060016003805490506103a79190611e25565b90505b60008111156107fd576000600382815481106103c9576103c8611e59565b5b9060005260206000200180546103de90611a4e565b80601f016020809104026020016040519081016040528092919081815260200182805461040a90611a4e565b80156104575780601f1061042c57610100808354040283529160200191610457565b820191906000526020600020905b81548152906001019060200180831161043a57829003601f168201915b5050505050905060006001826040516104709190611eb9565b90815260200160405180910390206040518060a00160405290816000820160009054906101000a900473ffffffffffffffffffffffffffffffffffffffff1673ffffffffffffffffffffffffffffffffffffffff1673ffffffffffffffffffffffffffffffffffffffff168152602001600182015481526020016002820154815260200160038201548152602001600482015481525050905060008160400151826020015161051f9190611988565b90506000811180156105315750600085115b15610716576000606482846020015161054a9190611eff565b6105549190611f30565b90506000606487846105669190611eff565b6105709190611f30565b9050603282118015610583575060508110155b15610713576004859080600181540180825580915050600190039060005260206000200160009091909190915090816105bc9190611f72565b50836002866040516105ce9190611eb9565b908152602001604051809103902060008201518160000160006101000a81548173ffffffffffffffffffffffffffffffffffffffff021916908373ffffffffffffffffffffffffffffffffffffffff16021790555060208201518160010155604082015181600201556060820151816003015560808201518160040155905050610656611356565b806001876040516106679190611eb9565b908152602001604051809103902060008201518160000160006101000a81548173ffffffffffffffffffffffffffffffffffffffff021916908373ffffffffffffffffffffffffffffffffffffffff16021790555060208201518160010155604082015181600201556060820151816003015560808201518160040155905050600387815481106106fb576106fa611e59565b5b906000526020600020016000610711919061139b565b505b50505b81608001514211156107e75761072a611356565b8060018560405161073b9190611eb9565b908152602001604051809103902060008201518160000160006101000a81548173ffffffffffffffffffffffffffffffffffffffff021916908373ffffffffffffffffffffffffffffffffffffffff16021790555060208201518160010155604082015181600201556060820151816003015560808201518160040155905050600385815481106107cf576107ce611e59565b5b9060005260206000200160006107e5919061139b565b505b50505080806107f590612044565b9150506103aa565b506000600360008154811061081557610814611e59565b5b90600052602060002001805461082a90611a4e565b80601f016020809104026020016040519081016040528092919081815260200182805461085690611a4e565b80156108a35780601f10610878576101008083540402835291602001916108a3565b820191906000526020600020905b81548152906001019060200180831161088657829003601f168201915b5050505050905060006001826040516108bc9190611eb9565b90815260200160405180910390206040518060a00160405290816000820160009054906101000a900473ffffffffffffffffffffffffffffffffffffffff1673ffffffffffffffffffffffffffffffffffffffff1673ffffffffffffffffffffffffffffffffffffffff168152602001600182015481526020016002820154815260200160038201548152602001600482015481525050905060008160400151826020015161096b9190611988565b905060008111801561097d5750600084115b15610b6357600060648284602001516109969190611eff565b6109a09190611f30565b90506000606486846109b29190611eff565b6109bc9190611f30565b90506032821180156109cf575060508110155b15610b6057600485908060018154018082558091505060019003906000526020600020016000909190919091509081610a089190611f72565b5083600286604051610a1a9190611eb9565b908152602001604051809103902060008201518160000160006101000a81548173ffffffffffffffffffffffffffffffffffffffff021916908373ffffffffffffffffffffffffffffffffffffffff16021790555060208201518160010155604082015181600201556060820151816003015560808201518160040155905050610aa2611356565b80600187604051610ab39190611eb9565b908152602001604051809103902060008201518160000160006101000a81548173ffffffffffffffffffffffffffffffffffffffff021916908373ffffffffffffffffffffffffffffffffffffffff160217905550602082015181600101556040820151816002015560608201518160030155608082015181600401559050506003600081548110610b4857610b47611e59565b5b906000526020600020016000610b5e919061139b565b505b50505b8160800151421115610c3557610b77611356565b80600185604051610b889190611eb9565b908152602001604051809103902060008201518160000160006101000a81548173ffffffffffffffffffffffffffffffffffffffff021916908373ffffffffffffffffffffffffffffffffffffffff160217905550602082015181600101556040820151816002015560608201518160030155608082015181600401559050506003600081548110610c1d57610c1c611e59565b5b906000526020600020016000610c33919061139b565b505b6003805480602002602001604051908101604052809291908181526020016000905b82821015610d03578382906000526020600020018054610c7690611a4e565b80601f0160208091040260200160405190810160405280929190818152602001828054610ca290611a4e565b8015610cef5780601f10610cc457610100808354040283529160200191610cef565b820191906000526020600020905b815481529060010190602001808311610cd257829003601f168201915b505050505081526020019060010190610c57565b505050509550505050505090565b606060008060009054906101000a900473ffffffffffffffffffffffffffffffffffffffff16905060008173ffffffffffffffffffffffffffffffffffffffff1663d4f50f98326040518263ffffffff1660e01b8152600401610d7491906117d4565b600060405180830381865afa158015610d91573d6000803e3d6000fd5b505050506040513d6000823e3d601f19601f82011682018060405250810190610dba9190611910565b905060008273ffffffffffffffffffffffffffffffffffffffff1663e8ae7a0a3289896040518463ffffffff1660e01b8152600401610dfb9392919061209a565b600060405180830381865afa158015610e18573d6000803e3d6000fd5b505050506040513d6000823e3d601f19601f82011682018060405250810190610e419190611910565b90506040518060200160405280600081525080519060200120828051906020012003610ea7576040518060400160405280601481526020017f766f74657220646f6573206e6f74206578697374000000000000000000000000815250935050505061119d565b6040518060200160405280600081525080519060200120818051906020012014610eee576040518060600160405280602a8152602001612221602a9139935050505061119d565b600060018888604051610f029291906119fb565b908152602001604051809103902060000160009054906101000a900473ffffffffffffffffffffffffffffffffffffffff169050600060018989604051610f4a9291906119fb565b9081526020016040518091039020600401549050600073ffffffffffffffffffffffffffffffffffffffff168273ffffffffffffffffffffffffffffffffffffffff1603610fd4576040518060400160405280601181526020017f6e6f2070726f706f73616c20666f756e640000000000000000000000000000008152509550505050505061119d565b80421115611001576040518060600160405280603281526020016121ef603291399550505050505061119d565b86156110b5576001808a8a60405161101a9291906119fb565b9081526020016040518091039020600101600082825461103a9190611988565b925050819055508473ffffffffffffffffffffffffffffffffffffffff16631fae0f6e328b8b6040518463ffffffff1660e01b815260040161107e93929190612118565b600060405180830381600087803b15801561109857600080fd5b505af11580156110ac573d6000803e3d6000fd5b5050505061115f565b6001808a8a6040516110c89291906119fb565b908152602001604051809103902060020160008282546110e89190611988565b925050819055508473ffffffffffffffffffffffffffffffffffffffff16631fae0f6e328b8b6040518463ffffffff1660e01b815260040161112c939291906121a9565b600060405180830381600087803b15801561114657600080fd5b505af115801561115a573d6000803e3d6000fd5b505050505b6040518060400160405280601281526020017f766f746520686173206265656e206d6164650000000000000000000000000000815250955050505050505b9392505050565b60606003805480602002602001604051908101604052809291908181526020016000905b828210156112745783829060005260206000200180546111e790611a4e565b80601f016020809104026020016040519081016040528092919081815260200182805461121390611a4e565b80156112605780601f1061123557610100808354040283529160200191611260565b820191906000526020600020905b81548152906001019060200180831161124357829003601f168201915b5050505050815260200190600101906111c8565b50505050905090565b60606004805480602002602001604051908101604052809291908181526020016000905b8282101561134d5783829060005260206000200180546112c090611a4e565b80601f01602080910402602001604051908101604052809291908181526020018280546112ec90611a4e565b80156113395780601f1061130e57610100808354040283529160200191611339565b820191906000526020600020905b81548152906001019060200180831161131c57829003601f168201915b5050505050815260200190600101906112a1565b50505050905090565b6040518060a00160405280600073ffffffffffffffffffffffffffffffffffffffff168152602001600081526020016000815260200160008152602001600081525090565b5080546113a790611a4e565b6000825580601f106113b957506113d8565b601f0160209004906000526020600020908101906113d791906113db565b5b50565b5b808211156113f45760008160009055506001016113dc565b5090565b6000604051905090565b600080fd5b600080fd5b600080fd5b600080fd5b600080fd5b60008083601f8401126114315761143061140c565b5b8235905067ffffffffffffffff81111561144e5761144d611411565b5b60208301915083600182028301111561146a57611469611416565b5b9250929050565b6000819050919050565b61148481611471565b811461148f57600080fd5b50565b6000813590506114a18161147b565b92915050565b600080600080606085870312156114c1576114c0611402565b5b600085013567ffffffffffffffff8111156114df576114de611407565b5b6114eb8782880161141b565b945094505060206114fe87828801611492565b925050604061150f87828801611492565b91505092959194509250565b600081519050919050565b600082825260208201905092915050565b6000819050602082019050919050565b600081519050919050565b600082825260208201905092915050565b60005b83811015611581578082015181840152602081019050611566565b60008484015250505050565b6000601f19601f8301169050919050565b60006115a982611547565b6115b38185611552565b93506115c3818560208601611563565b6115cc8161158d565b840191505092915050565b60006115e3838361159e565b905092915050565b6000602082019050919050565b60006116038261151b565b61160d8185611526565b93508360208202850161161f85611537565b8060005b8581101561165b578484038952815161163c85826115d7565b9450611647836115eb565b925060208a01995050600181019050611623565b50829750879550505050505092915050565b6000602082019050818103600083015261168781846115f8565b905092915050565b60008115159050919050565b6116a48161168f565b81146116af57600080fd5b50565b6000813590506116c18161169b565b92915050565b6000806000604084860312156116e0576116df611402565b5b600084013567ffffffffffffffff8111156116fe576116fd611407565b5b61170a8682870161141b565b9350935050602061171d868287016116b2565b9150509250925092565b600082825260208201905092915050565b600061174382611547565b61174d8185611727565b935061175d818560208601611563565b6117668161158d565b840191505092915050565b6000602082019050818103600083015261178b8184611738565b905092915050565b600073ffffffffffffffffffffffffffffffffffffffff82169050919050565b60006117be82611793565b9050919050565b6117ce816117b3565b82525050565b60006020820190506117e960008301846117c5565b92915050565b600080fd5b7f4e487b7100000000000000000000000000000000000000000000000000000000600052604160045260246000fd5b61182c8261158d565b810181811067ffffffffffffffff8211171561184b5761184a6117f4565b5b80604052505050565b600061185e6113f8565b905061186a8282611823565b919050565b600067ffffffffffffffff82111561188a576118896117f4565b5b6118938261158d565b9050602081019050919050565b60006118b36118ae8461186f565b611854565b9050828152602081018484840111156118cf576118ce6117ef565b5b6118da848285611563565b509392505050565b600082601f8301126118f7576118f661140c565b5b81516119078482602086016118a0565b91505092915050565b60006020828403121561192657611925611402565b5b600082015167ffffffffffffffff81111561194457611943611407565b5b611950848285016118e2565b91505092915050565b7f4e487b7100000000000000000000000000000000000000000000000000000000600052601160045260246000fd5b600061199382611471565b915061199e83611471565b92508282019050808211156119b6576119b5611959565b5b92915050565b600081905092915050565b82818337600083830152505050565b60006119e283856119bc565b93506119ef8385846119c7565b82840190509392505050565b6000611a088284866119d6565b91508190509392505050565b600082905092915050565b7f4e487b7100000000000000000000000000000000000000000000000000000000600052602260045260246000fd5b60006002820490506001821680611a6657607f821691505b602082108103611a7957611a78611a1f565b5b50919050565b60008190508160005260206000209050919050565b60006020601f8301049050919050565b600082821b905092915050565b600060088302611ae17fffffffffffffffffffffffffffffffffffffffffffffffffffffffffffffffff82611aa4565b611aeb8683611aa4565b95508019841693508086168417925050509392505050565b6000819050919050565b6000611b28611b23611b1e84611471565b611b03565b611471565b9050919050565b6000819050919050565b611b4283611b0d565b611b56611b4e82611b2f565b848454611ab1565b825550505050565b600090565b611b6b611b5e565b611b76818484611b39565b505050565b5b81811015611b9a57611b8f600082611b63565b600181019050611b7c565b5050565b601f821115611bdf57611bb081611a7f565b611bb984611a94565b81016020851015611bc8578190505b611bdc611bd485611a94565b830182611b7b565b50505b505050565b600082821c905092915050565b6000611c0260001984600802611be4565b1980831691505092915050565b6000611c1b8383611bf1565b9150826002028217905092915050565b611c358383611a14565b67ffffffffffffffff811115611c4e57611c4d6117f4565b5b611c588254611a4e565b611c63828285611b9e565b6000601f831160018114611c925760008415611c80578287013590505b611c8a8582611c0f565b865550611cf2565b601f198416611ca086611a7f565b60005b82811015611cc857848901358255600182019150602085019450602081019050611ca3565b86831015611ce55784890135611ce1601f891682611bf1565b8355505b6001600288020188555050505b50505050505050565b600067ffffffffffffffff821115611d1657611d156117f4565b5b602082029050602081019050919050565b6000611d3a611d3584611cfb565b611854565b90508083825260208201905060208402830185811115611d5d57611d5c611416565b5b835b81811015611da457805167ffffffffffffffff811115611d8257611d8161140c565b5b808601611d8f89826118e2565b85526020850194505050602081019050611d5f565b5050509392505050565b600082601f830112611dc357611dc261140c565b5b8151611dd3848260208601611d27565b91505092915050565b600060208284031215611df257611df1611402565b5b600082015167ffffffffffffffff811115611e1057611e0f611407565b5b611e1c84828501611dae565b91505092915050565b6000611e3082611471565b9150611e3b83611471565b9250828203905081811115611e5357611e52611959565b5b92915050565b7f4e487b7100000000000000000000000000000000000000000000000000000000600052603260045260246000fd5b6000611e9382611547565b611e9d81856119bc565b9350611ead818560208601611563565b80840191505092915050565b6000611ec58284611e88565b915081905092915050565b7f4e487b7100000000000000000000000000000000000000000000000000000000600052601260045260246000fd5b6000611f0a82611471565b9150611f1583611471565b925082611f2557611f24611ed0565b5b828204905092915050565b6000611f3b82611471565b9150611f4683611471565b9250828202611f5481611471565b91508282048414831517611f6b57611f6a611959565b5b5092915050565b611f7b82611547565b67ffffffffffffffff811115611f9457611f936117f4565b5b611f9e8254611a4e565b611fa9828285611b9e565b600060209050601f831160018114611fdc5760008415611fca578287015190505b611fd48582611c0f565b86555061203c565b601f198416611fea86611a7f565b60005b8281101561201257848901518255600182019150602085019450602081019050611fed565b8683101561202f578489015161202b601f891682611bf1565b8355505b6001600288020188555050505b505050505050565b600061204f82611471565b91506000820361206257612061611959565b5b600182039050919050565b60006120798385611727565b93506120868385846119c7565b61208f8361158d565b840190509392505050565b60006040820190506120af60008301866117c5565b81810360208301526120c281848661206d565b9050949350505050565b7f7965730000000000000000000000000000000000000000000000000000000000600082015250565b6000612102600383611727565b915061210d826120cc565b602082019050919050565b600060608201905061212d60008301866117c5565b818103602083015261214081848661206d565b90508181036040830152612153816120f5565b9050949350505050565b7f6e6f000000000000000000000000000000000000000000000000000000000000600082015250565b6000612193600283611727565b915061219e8261215d565b602082019050919050565b60006060820190506121be60008301866117c5565b81810360208301526121d181848661206d565b905081810360408301526121e481612186565b905094935050505056fe766f74696e6720706572696f642068617320656e6465642e204e6f206368616e6765732068617665206265656e206d616465766f7465722068617320766f7465642e204e6f206368616e6765732068617665206265656e206d616465a2646970667358221220c9014fcf79df1cec346fe729d07a9ec395534f073b4690ebfbb0933a0f1e92f164736f6c63430008110033",
  "immutableReferences": {},
  "source": "pragma solidity ^0.8.0;\n\nimport \"./datastore.sol\";\n\ncontract ProposalContract {\n    address personnelDataAddr;\n    constructor(address _personnelDataAddr) public payable {\n        personnelDataAddr = _personnelDataAddr;\n    }\n\n    struct Proposal {\n        address createdBy;\n        uint voteYes;\n        uint voteNo;\n        uint budget;\n        uint votingEndTime;\n    }\n\n    // Map of `proposal` structs.\n    mapping(string => Proposal) proposals;\n    mapping(string => Proposal) winningProposals;\n\n    // List of proposal names\n    string[] proposalNames;\n    string[] winningProposalNames;\n\n    // get all proposals\n    function getAllProposals() public view returns (string[] memory) {\n        return proposalNames;\n    }\n\n    // add a new proposal\n    function addProposal(string calldata proposalName, uint _budget, uint _votingPeriod) public {\n        Datastore personnelData = Datastore(personnelDataAddr);\n        string memory directorName = personnelData.getDirector(tx.origin);\n\n        if (keccak256(bytes(directorName)) != keccak256(bytes(\"\"))) {\n            proposals[proposalName] = \n                Proposal({\n                    createdBy: tx.origin,\n                    voteYes: 0,\n                    voteNo: 0,\n                    budget: _budget,\n                    votingEndTime: block.timestamp + _votingPeriod\n                });\n            proposalNames.push(proposalName);\n        }\n    }\n \n    // vote for proposal\n    function voteProposal(string calldata _proposalName, bool voteYesNo) public returns (string memory) {\n        Datastore personnelData = Datastore(personnelDataAddr);\n        string memory voterName = personnelData.getVoter(tx.origin);\n        string memory voterProposalStatus = personnelData.getVoterProposal(tx.origin, _proposalName);\n\n        // check if voter exists\n        if (keccak256(bytes(voterName)) == keccak256(bytes(\"\"))){\n            return \"voter does not exist\";\n        }\n        \n        // check if voter has voted. if value is not \"yes\" or \"no\", return\n        if (keccak256(bytes(voterProposalStatus)) != keccak256(bytes(\"\"))){\n            return \"voter has voted. No changes have been made\";\n        }\n        \n        // check if proposal exists, voting period has ended\n        address createdBy = proposals[_proposalName].createdBy;\n        uint votingEndTime = proposals[_proposalName].votingEndTime;\n        if (createdBy == address(0)) {\n            return \"no proposal found\";\n        }\n        else if (block.timestamp > votingEndTime) {\n            return \"voting period has ended. No changes have been made\";\n        }\n        else {\n            if (voteYesNo) {\n                proposals[_proposalName].voteYes += 1;\n                // set voter's vote details for project to yes\n                personnelData.addVoterProposal(tx.origin, _proposalName, \"yes\");\n            } else {\n                proposals[_proposalName].voteNo += 1;\n                // set voter's vote details for project to no\n                personnelData.addVoterProposal(tx.origin, _proposalName, \"no\");\n            }\n            return \"vote has been made\";\n        }\n    }\n\n    function removeEndedProposals() public returns (string[] memory) {\n\n        Datastore personnelData = Datastore(personnelDataAddr);\n        uint numVoters = personnelData.getVoters().length;\n\n        for (uint i = proposalNames.length-1; i > 0; i--) {\n            string memory proposalName = proposalNames[i];\n            Proposal memory proposal = proposals[proposalName];\n            \n            // move winning proposals to another array\n            uint totalVotes = proposal.voteYes + proposal.voteNo;\n            if (totalVotes > 0 && numVoters > 0) {\n                uint percentageWinning = proposal.voteYes / totalVotes * 100;\n                uint percentageVoted = totalVotes / numVoters * 100;\n                if (percentageWinning > 50 && percentageVoted >= 80) {\n                    winningProposalNames.push(proposalName);\n                    winningProposals[proposalName] = proposal;\n                    Proposal memory empty;\n                    proposals[proposalName] = empty;\n                    delete proposalNames[i];\n                }\n            }\n\n            // delete all ended proposals\n            if (block.timestamp > proposal.votingEndTime) {\n                Proposal memory empty;\n                proposals[proposalName] = empty;\n                delete proposalNames[i];\n            }\n        }\n\n        // have to do one more for the index 0 coz solidity is trash\n        string memory firstProposalName = proposalNames[0];\n        Proposal memory firstProposal = proposals[firstProposalName];\n        uint firstTotalVotes = firstProposal.voteYes + firstProposal.voteNo;\n\n        // move winning proposal to another array\n        if (firstTotalVotes > 0 && numVoters > 0) {\n            uint firstPercentageWinning = firstProposal.voteYes / firstTotalVotes * 100;\n            uint firstPercentageVoted = firstTotalVotes / numVoters * 100;\n            if (firstPercentageWinning > 50 && firstPercentageVoted >= 80) {\n                winningProposalNames.push(firstProposalName);\n                winningProposals[firstProposalName] = firstProposal;\n                Proposal memory empty;\n                proposals[firstProposalName] = empty;\n                delete proposalNames[0];\n            }\n        }\n        \n        // delete ended proposals\n        if (block.timestamp > firstProposal.votingEndTime) {\n            Proposal memory empty;\n            proposals[firstProposalName] = empty;\n            delete proposalNames[0];\n        }\n        return proposalNames;\n    }\n\n    // get all winning proposals\n    function getAllWinningProposals() public view returns (string[] memory) {\n        return winningProposalNames;\n    }\n}\n\n",
  "sourcePath": "/Users/sean/Desktop/blockchainproj2/contracts/ProposalContract.sol",
  "compiler": {
    "name": "solc",
    "version": "0.8.17+commit.8df45f5f.Emscripten.clang"
  },
  "schemaVersion": "3.4.10",
  "updatedAt": "2022-11-05T08:04:03.934Z",
  "networkType": "ethereum",
  "devdoc": {
    "kind": "dev",
    "methods": {},
    "version": 1
  },
  "userdoc": {
    "kind": "user",
    "methods": {},
    "version": 1
  }
}